:100000000C942A000C9456150C9483150C94B0157E
:100010000C9447110C9414110C944B0F0C94E50E96
:100020000C94180F0C94B20E0C94BE0B0C948B0B0A
:100030000C9447000C9447000C9447000C94470024
:100040000C94151D0C9447000C9447000C94470029
:100050000C94470011241FBECFE5D8E0DEBFCDBF12
:1000600011E0A0E6B0E0ECEBFBE402C005900D92DD
:10007000A039B107D9F711E0A0E9B1E001C01D92A4
:10008000A23BB107E1F70E94B4240C94DC250C9448
:100090000000EF92FF920F931F937B018C0120E0F1
:1000A00030E040E05FE40E94F50388238CF0C80153
:1000B000B70120E030E040E05FE40E94C1010E940F
:1000C000B3049B01AC01205030404040504806C072
:1000D000C801B7010E94B3049B01AC01B901CA0178
:1000E0001F910F91FF90EF900895A0E0B0E0EBE733
:1000F000F0E00C94A525DC012B01FA019C919230D3
:1001000008F439C1EB018881823008F433C194309E
:1001100069F4843009F02FC111969C91119789815F
:10012000981709F428C1ACE6B0E025C1843009F481
:1001300021C18230A9F4923009F01DC19A01AD01AC
:1001400088E0EA010990AE01E90109929E0181501F
:10015000C1F7E201898111969C918923818308C1AD
:10016000923009F407C112962D903C901397EB0141
:100170008A819B811496AD90BD90CD90DC901797AD
:10018000EC80FD800E811F819101281B390BB90184
:1001900037FF04C066277727621B730B6032710537
:1001A0000CF061C0121613066CF537014801062EDB
:1001B00004C096948794779467940A94D2F721E0C8
:1001C00030E040E050E004C0220F331F441F551FB1
:1001D0006A95D2F721503040404050402E213F21B7
:1001E00040235123211531054105510521F021E01E
:1001F00030E040E050E079018A01E628F72808293C
:1002000019293CC0232BD1F1260E371E350146019A
:10021000062E04C096948794779467940A94D2F734
:1002200021E030E040E050E004C0220F331F441FC3
:10023000551F6A95D2F721503040404050402A2146
:100240003B214C215D21211531054105510521F04E
:1002500021E030E040E050E059016A01A628B728CB
:10026000C828D9280BC0821593052CF01C01AA249C
:10027000BB24650103C0EE24FF24870111969C91E5
:10028000D20111968C91981709F445C0992339F041
:10029000A80197012A193B094C095D0906C0A6016E
:1002A00095012E193F09400B510B57FD08C01182D3
:1002B0003382228224833583468357831DC081E0A5
:1002C00081833382228288279927DC01821B930B4A
:1002D000A40BB50B84839583A683B7830DC0220F2F
:1002E000331F441F551F24833583468357838281E0
:1002F000938101979383828324813581468157813D
:10030000DA01C9010197A109B1098F5F9F4FAF4F72
:10031000BF4328F30BC0918333822282EA0CFB1C7B
:100320000C1D1D1DE482F5820683178383E0808304
:10033000248135814681578157FF1AC0C901AA27F8
:1003400097FDA095BA2F81709070A070B0705695EF
:10035000479537952795822B932BA42BB52B848318
:100360009583A683B7838281938101969383828349
:10037000DF0101C0D201CD01CDB7DEB7E2E10C94BF
:10038000C125A0E2B0E0E7ECF1E00C94B12569836F
:100390007A838B839C832D833E834F835887E9E048
:1003A000EE2EF12CEC0EFD1ECE010196B7010E943F
:1003B000A4068E010F5E1F4FCE010596B8010E9464
:1003C000A4068A8991E089278A8BC701B801AE010A
:1003D000475E5F4F0E9475000E94CF05A096E6E041
:1003E0000C94CD25A0E2B0E0E8EFF1E00C94B1254B
:1003F00069837A838B839C832D833E834F835887C5
:10040000F9E0EF2EF12CEC0EFD1ECE010196B701A6
:100410000E94A4068E010F5E1F4FCE010596B80103
:100420000E94A406C701B801AE01475E5F4F0E945B
:1004300075000E94CF05A096E6E00C94CD25A0E2C1
:10044000B0E0E5E2F2E00C94A52569837A838B8322
:100450009C832D833E834F835887CE010196BE0136
:10046000675F7F4F0E94A406CE010596BE016F5EB6
:100470007F4F0E94A4069985923088F08989823046
:10048000C8F0943019F4823051F404C0843029F457
:10049000923081F48CE690E0C6C0923049F420E0BE
:1004A0009A858A89981321E02A87CE010996BBC0D4
:1004B000823049F420E09A858A89981321E02A8BBA
:1004C000CE014196B0C02D843E844F8458886D88FB
:1004D0007E888F88988CEE24FF248701AA24BB2471
:1004E000650140E050E060E070E0E0E0F0E0C10174
:1004F00081709070892BE9F0E60CF71C081D191D1E
:100500009A01AB012A0D3B1D4C1D5D1D80E090E062
:10051000A0E0B0E0E614F7040805190520F481E036
:1005200090E0A0E0B0E0BA01A901480F591F6A1F8E
:100530007B1FAA0CBB1CCC1CDD1C97FE08C081E0F5
:1005400090E0A0E0B0E0A82AB92ACA2ADB2A3196B6
:10055000E032F10549F0660C771C881C991C569412
:10056000479437942794C3CFFA85EA892B893C892D
:100570008B859C85280F391F2E5F3F4F17C0CA01FE
:1005800081709070892B61F016950795F794E79428
:1005900080E090E0A0E0B0E8E82AF92A0A2B1B2BC3
:1005A00076956795579547952F5F3F4F77FDE7CF36
:1005B0000CC0440F551F661F771F17FD4160EE0CDE
:1005C000FF1C001F111F21503040403090E05907A0
:1005D00090E0690790E4790760F32B8F3C8FDB0193
:1005E000CA018F779070A070B07080349105A1051A
:1005F000B10561F447FD0AC0E114F10401051105DC
:1006000029F0405C5F4F6F4F7F4F40781A8EFE1786
:1006100011F081E08A8F4D8F5E8F6F8F78A383E01A
:10062000898FCE0149960E94CF05A096E2E10C94F5
:10063000C125A8E1B0E0EFE1F3E00C94AD256983BA
:100640007A838B839C832D833E834F835887B9E0C5
:10065000EB2EF12CEC0EFD1ECE010196B7010E948F
:10066000A4068E010F5E1F4FCE010596B8010E94B1
:10067000A4062985223008F47EC03989323010F46E
:10068000B8017CC08A859A8989278A87243011F02D
:10069000223031F4231709F06EC06CE670E06EC0B2
:1006A000343039F41D861E861F86188A1C861B86E8
:1006B00004C0323021F484E08987B7015FC02B8504
:1006C0003C858B899C89281B390B3C872B87ED84C3
:1006D000FE840F851889AD88BE88CF88D88CEA142F
:1006E000FB040C051D0540F4EE0CFF1C001F111F40
:1006F000215030403C872B8720E030E040E050E044
:1007000080E090E0A0E0B0E460E070E0EA14FB0478
:100710000C051D0540F0282B392B4A2B5B2BEA18C2
:10072000FB080C091D09B695A79597958795EE0CC2
:10073000FF1C001F111F6F5F7F4F6F31710531F775
:10074000DA01C9018F779070A070B0708034910584
:10075000A105B10561F427FD0AC0E114F10401050A
:10076000110529F0205C3F4F4F4F5F4F20782D87B8
:100770003E874F87588BBE01675F7F4FCB010E943A
:10078000CF056896EAE00C94C925A8E1B0E0EBEC4F
:10079000F3E00C94B12569837A838B839C832D834A
:1007A0003E834F83588789E0E82EF12CEC0EFD1E26
:1007B000CE010196B7010E94A4068E010F5E1F4F65
:1007C000CE010596B8010E94A4068985823040F0CA
:1007D0008989823028F0C701B8010E941C0701C036
:1007E0008FEF6896E6E00C94CD25A8E1B0E0EBEF42
:1007F000F3E00C94B12569837A838B839C832D83EA
:100800003E834F83588789E0E82EF12CEC0EFD1EC5
:10081000CE010196B7010E94A4068E010F5E1F4F04
:10082000CE010596B8010E94A4068985823040F069
:100830008989823028F0C701B8010E941C0701C0D5
:100840008FEF6896E6E00C94CD25A8E1B0E0EBE2EE
:10085000F4E00C94B12569837A838B839C832D8388
:100860003E834F83588789E0E82EF12CEC0EFD1E65
:10087000CE010196B7010E94A4068E010F5E1F4FA4
:10088000CE010596B8010E94A4068985823040F009
:100890008989823028F0C701B8010E941C0701C075
:1008A00081E06896E6E00C94CD25A8E0B0E0EBE5A9
:1008B000F4E00C94AE259B01AC0183E08983DA015E
:1008C000C9018827B7FD83959927AA27BB27B82E8A
:1008D000211531054105510519F482E089833AC09B
:1008E0008823A9F0203080E0380780E0480780E8BE
:1008F000580729F460E070E080E09FEC30C0EE24FF
:10090000FF248701E21AF30A040B150B02C07901D8
:100910008A018EE1C82ED12CDC82CB82ED82FE8250
:100920000F831887C801B7010E9480050197181628
:10093000190684F4082E04C0EE0CFF1C001F111FC2
:100940000A94D2F7ED82FE820F831887C81AD90A5B
:10095000DC82CB82BA82CE0101960E94CF05289616
:10096000E9E00C94CA25ACE0B0E0E9EBF4E00C94CB
:10097000B52569837A838B839C83CE010196BE0162
:100980006B5F7F4F0E94A4068D81823061F18230BF
:1009900050F1843021F48E81882351F12EC02F81B3
:1009A000388537FD20C06E812F3131051CF066235C
:1009B000F9F023C08EE190E0821B930B29853A85E4
:1009C0004B855C8504C056954795379527958A9544
:1009D000D2F76623B1F050954095309521953F4F61
:1009E0004F4F5F4F0EC020E030E040E050E009C0C4
:1009F0002FEF3FEF4FEF5FE704C020E030E040E033
:100A000050E8B901CA012C96E2E00C94D125A8E087
:100A1000B0E0EDE0F5E00C94AD257B018C016115B3
:100A200071058105910519F482E0898360C083E036
:100A300089838EE1C82ED12CDC82CB82ED82FE82AE
:100A40000F831887C801B7010E948005FC01319708
:100A5000F7FF3BC0222733272E1B3F0B57016801AE
:100A6000022E04C0D694C794B794A7940A94D2F7E0
:100A700040E050E060E070E081E090E0A0E0B0E0B5
:100A800004C0880F991FAA1FBB1F2A95D2F7019790
:100A9000A109B1098E219F21A023B1230097A105AF
:100AA000B10521F041E050E060E070E04A295B29A7
:100AB0006C297D294D835E836F8378878EE190E07A
:100AC0008E1B9F0B9C838B8312C0309781F00E2E60
:100AD00004C0EE0CFF1C001F111F0A94D2F7ED8218
:100AE000FE820F831887CE1ADF0ADC82CB821A823D
:100AF000CE0101960E94CF052896EAE00C94C92504
:100B0000EF92FF920F931F937B018C0180E0E81618
:100B100080E0F80681E0080780E0180788F48FEF8E
:100B2000E816F1040105110531F028F088E090E0A5
:100B3000A0E0B0E017C080E090E0A0E0B0E012C01C
:100B400080E0E81680E0F80680E0080781E01807FA
:100B500028F088E190E0A0E0B0E004C080E190E0FF
:100B6000A0E0B0E020E230E040E050E0281B390B8C
:100B70004A0B5B0B04C016950795F794E7948A958A
:100B8000D2F7F701EC58FF4F8081281B310941094A
:100B90005109C9011F910F91FF90EF900895DF92C5
:100BA000EF92FF920F931F93FC01E480F580068182
:100BB0001781D1808081823048F480E090E0A0E10C
:100BC000B0E0E82AF92A0A2B1B2BA5C0843009F4CF
:100BD0009FC0823021F4EE24FF24870105C0E11478
:100BE000F1040105110519F4E0E0F0E096C062811E
:100BF00073819FEF623879070CF05BC022E83FEF0A
:100C0000261B370B2A3131052CF020E030E040E084
:100C100050E02AC0B801A701022E04C0769567955E
:100C2000579547950A94D2F781E090E0A0E0B0E0B4
:100C300004C0880F991FAA1FBB1F2A95D2F70197DE
:100C4000A109B1098E219F21A023B1230097A105FD
:100C5000B10521F081E090E0A0E0B0E09A01AB01A5
:100C6000282B392B4A2B5B2BDA01C9018F77907027
:100C7000A070B07080349105A105B10539F427FF4B
:100C800009C0205C3F4F4F4F5F4F04C0215C3F4F76
:100C90004F4F5F4FE0E0F0E02030A0E03A07A0E0E7
:100CA0004A07A0E45A0710F0E1E0F0E079018A0178
:100CB00027C06038710564F5FB01E158FF4FD8018A
:100CC000C7018F779070A070B07080349105A10536
:100CD000B10539F4E7FE0DC080E490E0A0E0B0E09B
:100CE00004C08FE390E0A0E0B0E0E80EF91E0A1F18
:100CF0001B1F17FF05C016950795F794E7943196CB
:100D000087E016950795F794E7948A95D1F705C083
:100D1000EE24FF248701EFEFF0E06E2F6795662742
:100D20006795902F9F77D794DD24D7948E2F869543
:100D3000492F462B582F5D29B701CA011F910F91EA
:100D4000FF90EF90DF900895FC01DB01408151811D
:100D50002281622F6F7770E0221F2227221F93814A
:100D6000892F880F822B282F30E0991F9927991FF0
:100D700011969C93119721153105A9F5411551053F
:100D80006105710511F482E037C082E89FEF139688
:100D90009C938E9312979A01AB0167E0220F331F49
:100DA000441F551F6A95D1F783E08C930DC0220F25
:100DB000331F441F551F12968D919C9113970197D5
:100DC00013969C938E931297203080E0380780E032
:100DD000480780E4580758F314962D933D934D939C
:100DE0005C93179708952F3F310579F4411551050C
:100DF0006105710519F484E08C93089564FF03C0C4
:100E000081E08C9312C01C9210C02F573040139673
:100E10003C932E93129783E08C9387E0440F551FE9
:100E2000661F771F8A95D1F7706414964D935D9372
:100E30006D937C93179708951F93DC01FB019C91A0
:100E4000923008F447C08081823008F443C0943067
:100E500051F411961C91843099F58181682F70E0CE
:100E6000611B71093FC0843021F0923031F482302F
:100E7000B9F18181882389F12DC011961C911197B8
:100E80008230F1F081811817D9F412962D913C919E
:100E90001397828193818217930794F0281739075B
:100EA000BCF014968D919D910D90BC91A02D248144
:100EB000358146815781281739074A075B0718F49F
:100EC000112341F00AC082179307A407B50740F425
:100ED000112319F061E070E005C06FEF7FEF02C0F1
:100EE00060E070E0CB011F910895DF93CF93CDB701
:100EF000DEB7CF91DF910895DF93CF93CDB7DEB703
:100F0000CF91DF910895EF92FF920F931F93DF939C
:100F1000CF93CDB7DEB727970FB6F894DEBF0FBEDD
:100F2000CDBF9C838B836D835F834E838D81815086
:100F30008A831982EE81FF81118210822CC0EE819A
:100F4000FF81808191817C018A81282F332727FDB1
:100F500030958B819C81FC01E20FF31F8081882FEB
:100F600090E0C0978C018AE069810E9442089C0150
:100F7000029FC001039F900D129F900D11248E0DB2
:100F80009F1DEE81FF819183808389818F5F89839B
:100F90008A8181508A838A8188238CF627960FB6AE
:100FA000F894DEBF0FBECDBFCF91DF911F910F919F
:100FB000FF90EF900895DF93CF93CDB7DEB72997D9
:100FC0000FB6F894DEBF0FBECDBF9C838B837E83AC
:100FD0006D834F831A8219828F81282F30E03987E1
:100FE0002887488559854B325105B1F08885998508
:100FF0008C32910534F4288539852A323105F1F097
:1010000036C0488559854D32510579F088859985D6
:101010008F32910511F12BC08B819C812D813E81F6
:10102000820F931F9A83898322C08B819C812D819B
:101030003E81821B930B9A83898319C08B819C818B
:101040002D813E81AC01429FC001439F900D529F74
:10105000900D11249A8389830AC08B819C812D81F4
:101060003E81B9010E947025CB019A8389838981D1
:101070009A8129960FB6F894DEBF0FBECDBFCF91EF
:10108000DF910895DF93CF9300D000D00F92CDB7BA
:10109000DEB78C836D8381E090E09B838A83198225
:1010A0008D81882329F481E090E09B838A8318C096
:1010B000198212C08C81282F30E08A819B81AC017B
:1010C000429FC001439F900D529F900D11249B831E
:1010D0008A8389818F5F898399818D81981750F3E5
:1010E0008A819B810F900F900F900F900F90CF915E
:1010F000DF910895DF93CF93CDB7DEB7A1E4B0E0E1
:10110000E1E4F0E0808188608C93CF91DF910895D5
:10111000DF93CF930F92CDB7DEB78983A1E4B0E020
:10112000E1E4F0E08081887F8C93A1E4B0E0E1E429
:10113000F0E090818981892B8C930F90CF91DF9182
:101140000895DF93CF93CDB7DEB7E1E4F0E088E117
:101150008083E1E4F0E01082CF91DF910895DF9386
:10116000CF930F92CDB7DEB7198289818F7B8983A8
:10117000AAE2B0E0EAE2F0E0808180618C93AAE22A
:10118000B0E0EAE2F0E0808188608C93898182603F
:101190008983898184608983AAE2B0E0EAE2F0E091
:1011A00080818B7F8C9389818F7E898389818F7DDC
:1011B00089838981877F8983898180688983E0E445
:1011C000F0E089818083A0E4B0E0E0E4F0E0808199
:1011D0008F778C93E0E4F0E01082E9E2F0E083E3C3
:1011E00080830F90CF91DF910895DF93CF930F927B
:1011F000CDB7DEB78983EBE2F0E0808182958695FA
:101200008770882F90E0817090700097A1F3ECE2D6
:10121000F0E089818083EBE2F0E080818295869521
:1012200086958370882F90E081709070009799F375
:10123000ABE2B0E0EBE2F0E0808180648C930F9051
:10124000CF91DF910895DF93CF9300D0CDB7DEB774
:101250009A838983EBE2F0E080818823DCF789813F
:101260009A81009731F0ECE2F0E08081E981FA8127
:1012700080830F900F90CF91DF910895DF93CF93EC
:1012800000D000D00F92CDB7DEB789836A834B833D
:101290008981282F30E03D832C838C819D81813092
:1012A000910509F442C02C813D81223031052CF496
:1012B0008C819D81009761F046C02C813D81223058
:1012C000310521F18C819D818330910581F03BC0F6
:1012D000A3E5B0E0E3E5F0E080818F7B8C93A3E5AC
:1012E000B0E0E3E5F0E08081877F8C932CC0A3E53C
:1012F000B0E0E3E5F0E0808180648C93A3E5B0E0AA
:10130000E3E5F0E08081877F8C931DC0A3E5B0E02A
:10131000E3E5F0E080818F7B8C93A3E5B0E0E3E52B
:10132000F0E0808188608C930EC0A3E5B0E0E3E537
:10133000F0E0808180648C93A3E5B0E0E3E5F0E029
:10134000808188608C93A3E5B0E0E3E5F0E08081E4
:101350008F7C8C93A3E5B0E0E3E5F0E090818B8196
:10136000892B8C93A3E5B0E0E3E5F0E08081887FF2
:101370008C93A3E5B0E0E3E5F0E090818A81892BCE
:101380008C930F900F900F900F900F90CF91DF9153
:101390000895DF93CF930F92CDB7DEB78983E2E54F
:1013A000F0E0898180830F90CF91DF910895DF93E2
:1013B000CF930F92CDB7DEB78983ECE5F0E089815A
:1013C00080830F90CF91DF910895DF93CF930F9299
:1013D000CDB7DEB789838981882F90E0A0E0B0E0A7
:1013E00028EE33E040E050E0BC01CD010E943D25F5
:1013F000DC01CB010E94000A0F90CF91DF9108958C
:10140000DF93CF93CDB7DEB72C970FB6F894DEBF3E
:101410000FBECDBF9B878A878A859B85CC01A0E0C4
:10142000B0E0BC01CD010E940705DC01CB01BC018D
:10143000CD0120E030E04AE754E40E941F02DC01C5
:10144000CB01BC01CD0120E030E040E853E40E9434
:101450001903DC01CB018E839F83A887B9876E8136
:101460007F81888599850E944900DC01CB019D839D
:101470008C836E817F81888599850E944900DC017B
:10148000CB01CC01A0E0B0E0BC01CD010E9407057A
:101490009B01AC016E817F81888599850E94C10185
:1014A000DC01CB01BC01CD010E944900DC01CB0174
:1014B0009B838A8319828A819B81009781F021E036
:1014C00030E08A819B81A901481B590BCA01982FE2
:1014D000882789838C819D8101969D838C83898156
:1014E0000E94C90910C0E8E5F0E08081882F90E0F3
:1014F000817090700097B9F3A8E5B0E0E8E5F0E0FE
:10150000808181608C931C868C819D81009711F075
:1015100051E05C878C819D8101979D838C838C85B4
:10152000882309F72C960FB6F894DEBF0FBECDBF07
:10153000CF91DF910895DF93CF93CDB7DEB72C978E
:101540000FB6F894DEBF0FBECDBF9B878A878A8512
:101550009B85CC01A0E0B0E0BC01CD010E94070555
:10156000DC01CB01BC01CD0120E030E040E853E4D8
:101570000E941903DC01CB018E839F83A887B98762
:101580006E817F81888599850E944900DC01CB01AD
:10159000882F90E09D838C836E817F8188859985DB
:1015A0000E94B304DC01CB01AA2797FDA095BA2FB6
:1015B000BC01CD010E9455049B01AC016E817F816D
:1015C000888599850E94C101DC01CB01BC01CD0158
:1015D0000E944900DC01CB019B838A8319828A81A6
:1015E0009B81009781F021E030E08A819B81A901F5
:1015F000481B590BCA01982F882789838C819D81AC
:1016000001969D838C8389810E94C90910C0E8E5F9
:10161000F0E08081882F90E0817090700097B9F39E
:10162000A8E5B0E0E8E5F0E0808181608C931C865D
:101630008C819D81009711F051E05C878C819D81A8
:1016400001979D838C838C85882309F72C960FB690
:10165000F894DEBF0FBECDBFCF91DF910895DF9329
:10166000CF93CDB7DEB7A9E5B0E0E9E5F0E0808142
:1016700081608C93CF91DF910895DF93CF93CDB7A5
:10168000DEB7A9E5B0E0E9E5F0E080818E7F8C93DC
:10169000CF91DF910895DF93CF93CDB7DEB7A9E562
:1016A000B0E0E9E5F0E0808182608C93CF91DF913A
:1016B0000895DF93CF93CDB7DEB7A9E5B0E0E9E5B4
:1016C000F0E080818D7F8C93CF91DF910895DF933F
:1016D000CF9300D0CDB7DEB79A83898389819A8171
:1016E00090939101809390010F900F90CF91DF9193
:1016F0000895DF93CF9300D0CDB7DEB79A83898367
:1017000089819A8190939301809392010F900F9019
:10171000CF91DF9108951F920F920FB60F9211246F
:101720002F933F934F935F936F937F938F939F93E9
:10173000AF93BF93EF93FF93DF93CF93CDB7DEB714
:101740008091900190919101009729F0E091900192
:10175000F09191010995CF91DF91FF91EF91BF91A8
:10176000AF919F918F917F916F915F914F913F9139
:101770002F910F900FBE0F901F9018951F920F92F0
:101780000FB60F9211242F933F934F935F936F9354
:101790007F938F939F93AF93BF93EF93FF93DF93C9
:1017A000CF93CDB7DEB780919201909193010097CE
:1017B00029F0E0919201F09193010995CF91DF9189
:1017C000FF91EF91BF91AF919F918F917F916F9119
:1017D0005F914F913F912F910F900FBE0F901F90EF
:1017E0001895DF93CF9300D000D000D0CDB7DEB7EF
:1017F00089836A834B832C838981282F30E03E8341
:101800002D838D819E818430910509F4AFC02D8197
:101810003E8125303105ECF48D819E81813091052A
:1018200009F44DC02D813E81223031052CF48D818B
:101830009E81009739F12AC12D813E8122303105E8
:1018400009F45AC08D819E818330910509F471C0DD
:101850001DC12D813E812630310509F4C1C08D8125
:101860009E81863091050CF49EC02D813E812730EB
:10187000310509F4D2C08D819E818830910509F42B
:10188000E9C004C1AFE4B0E0EFE4F0E080818E7F16
:101890008C93AFE4B0E0EFE4F0E080818D7F8C9337
:1018A000AEE4B0E0EEE4F0E08081877F8C93AEE4BC
:1018B000B0E0EEE4F0E080818F7E8C93E7C0AFE48F
:1018C000B0E0EFE4F0E080818E7F8C93AFE4B0E095
:1018D000EFE4F0E080818D7F8C93AEE4B0E0EEE445
:1018E000F0E0808188608C93AEE4B0E0EEE4F0E05C
:1018F00080818F7E8C93CAC0AFE4B0E0EFE4F0E06B
:1019000080818E7F8C93AFE4B0E0EFE4F0E08081E3
:101910008D7F8C93AEE4B0E0EEE4F0E080818860EF
:101920008C93AEE4B0E0EEE4F0E0808180618C93D3
:10193000ADC0AFE4B0E0EFE4F0E080818E7F8C9347
:10194000AFE4B0E0EFE4F0E0808182608C93AEE43D
:10195000B0E0EEE4F0E08081877F8C93AEE4B0E00D
:10196000EEE4F0E0808180618C9390C0AFE4B0E061
:10197000EFE4F0E0808181608C93AFE4B0E0EFE4CD
:10198000F0E0808182608C93AEE4B0E0EEE4F0E0C1
:101990008081877F8C93AEE4B0E0EEE4F0E080815C
:1019A00080618C9373C0AFE4B0E0EFE4F0E080813D
:1019B0008E7F8C93AFE4B0E0EFE4F0E080818D7F28
:1019C0008C93AEE4B0E0EEE4F0E08081877F8C930E
:1019D000AEE4B0E0EEE4F0E0808180618C9356C02C
:1019E000AFE4B0E0EFE4F0E0808181608C93AFE49D
:1019F000B0E0EFE4F0E080818D7F8C93AEE4B0E066
:101A0000EEE4F0E08081877F8C93AEE4B0E0EEE41A
:101A1000F0E0808180618C9339C0AFE4B0E0EFE406
:101A2000F0E080818E7F8C93AFE4B0E0EFE4F0E0F3
:101A3000808182608C93AEE4B0E0EEE4F0E08081DF
:101A400088608C93AEE4B0E0EEE4F0E080818061E9
:101A50008C931CC0AFE4B0E0EFE4F0E080818160E3
:101A60008C93AFE4B0E0EFE4F0E0808182608C938F
:101A7000AEE4B0E0EEE4F0E0808188608C93AEE408
:101A8000B0E0EEE4F0E0808180618C93AFE4B0E000
:101A9000EFE4F0E080818F738C93AFE4B0E0EFE48B
:101AA000F0E090818B81892B8C93AFE4B0E0EFE480
:101AB000F0E080818F7C8C93AFE4B0E0EFE4F0E065
:101AC00090818C81892B8C93AEE4B0E0EEE4F0E061
:101AD0008081887F8C93AEE4B0E0EEE4F0E090810A
:101AE0008A81892B8C9326960FB6F894DEBF0FBEA1
:101AF000CDBFCF91DF910895DF93CF9300D0CDB7C5
:101B0000DEB79A838983ECE4F0E089819A8191833E
:101B100080830F900F90CF91DF910895DF93CF9343
:101B200000D0CDB7DEB79A838983EAE4F0E08981FB
:101B30009A81918380830F900F90CF91DF910895C8
:101B4000DF93CF9300D0CDB7DEB79A838983E8E4E3
:101B5000F0E089819A81918380830F900F90CF91DB
:101B6000DF910895DF93CF9300D0CDB7DEB79A838E
:101B70008983E6E4F0E089819A81918380830F90E4
:101B80000F90CF91DF910895DF93CF93CDB7DEB75C
:101B9000E6E4F0E080819181CF91DF910895DF93B9
:101BA000CF9300D00F92CDB7DEB789838981282FDC
:101BB00030E03B832A838A819B81009731F02A8120
:101BC0003B812130310549F00FC0AEE4B0E0EEE4D6
:101BD000F0E080818F7B8C9307C0AEE4B0E0EEE450
:101BE000F0E0808180648C930F900F900F90CF91E4
:101BF000DF910895DF93CF93CDB7DEB7A9E5B0E0CD
:101C0000E9E5F0E0808184608C93CF91DF910895C5
:101C1000DF93CF93CDB7DEB7A9E5B0E0E9E5F0E01B
:101C200080818B7F8C93CF91DF910895DF93CF9349
:101C3000CDB7DEB7A9E5B0E0E9E5F0E080818061ED
:101C40008C93CF91DF910895DF93CF93CDB7DEB71B
:101C5000A9E5B0E0E9E5F0E080818F7E8C93CF913B
:101C6000DF910895DF93CF93CDB7DEB7A9E5B0E05C
:101C7000E9E5F0E0808188608C93CF91DF91089551
:101C8000DF93CF93CDB7DEB7A9E5B0E0E9E5F0E0AB
:101C90008081877F8C93CF91DF910895DF93CF93DD
:101CA000CDB7DEB7A9E5B0E0E9E5F0E0808180627C
:101CB0008C93CF91DF910895DF93CF93CDB7DEB7AB
:101CC000A9E5B0E0E9E5F0E080818F7D8C93CF91CC
:101CD000DF910895DF93CF9300D0CDB7DEB79A831D
:101CE000898389819A8190939501809394010F90C3
:101CF0000F90CF91DF910895DF93CF9300D0CDB7B0
:101D0000DEB79A83898389819A8190939701809322
:101D100096010F900F90CF91DF910895DF93CF93AD
:101D200000D0CDB7DEB79A83898389819A81909359
:101D30009901809398010F900F90CF91DF910895B2
:101D4000DF93CF9300D0CDB7DEB79A8389838981A3
:101D50009A8190939B0180939A010F900F90CF915D
:101D6000DF9108951F920F920FB60F9211242F93B7
:101D70003F934F935F936F937F938F939F93AF9313
:101D8000BF93EF93FF93DF93CF93CDB7DEB78091EF
:101D9000940190919501009729F0E0919401F091C0
:101DA00095010995CF91DF91FF91EF91BF91AF918F
:101DB0009F918F917F916F915F914F913F912F9163
:101DC0000F900FBE0F901F9018951F920F920FB695
:101DD0000F9211242F933F934F935F936F937F93B1
:101DE0008F939F93AF93BF93EF93FF93DF93CF9323
:101DF000CDB7DEB78091960190919701009729F0B9
:101E0000E0919601F09197010995CF91DF91FF91B3
:101E1000EF91BF91AF919F918F917F916F915F9162
:101E20004F913F912F910F900FBE0F901F901895DB
:101E30001F920F920FB60F9211242F933F934F933F
:101E40005F936F937F938F939F93AF93BF93EF9322
:101E5000FF93DF93CF93CDB7DEB780919801909138
:101E60009901009729F0E0919801F0919901099565
:101E7000CF91DF91FF91EF91BF91AF919F918F91A2
:101E80007F916F915F914F913F912F910F900FBE76
:101E90000F901F9018951F920F920FB60F9211245A
:101EA0002F933F934F935F936F937F938F939F9362
:101EB000AF93BF93EF93FF93DF93CF93CDB7DEB78D
:101EC00080919A0190919B01009729F0E0919A01ED
:101ED000F0919B010995CF91DF91FF91EF91BF9117
:101EE000AF919F918F917F916F915F914F913F91B2
:101EF0002F910F900FBE0F901F901895DF93CF93E7
:101F000000D000D00F92CDB7DEB789836A834B83B0
:101F10008981282F30E03D832C838C819D81813005
:101F2000910521F12C813D81223031052CF48C81E9
:101F30009D81009761F046C02C813D8122303105A2
:101F400021F18C819D818330910571F13BC0A5E425
:101F5000B0E0E5E4F0E080818F7B8C93A5E4B0E015
:101F6000E5E4F0E08081877F8C932CC0A5E4B0E0AD
:101F7000E5E4F0E0808180648C93A5E4B0E0E5E4E2
:101F8000F0E08081877F8C931DC0A5E4B0E0E5E49C
:101F9000F0E080818F7B8C93A5E4B0E0E5E4F0E095
:101FA000808188608C930EC0A5E4B0E0E5E4F0E0A9
:101FB000808180648C93A5E4B0E0E5E4F0E080816A
:101FC00088608C93A5E4B0E0E5E4F0E080818F7C4C
:101FD0008C93A5E4B0E0E5E4F0E090818B81892B5F
:101FE0008C93A5E4B0E0E5E4F0E08081887F8C93F9
:101FF000A5E4B0E0E5E4F0E090818A81892B8C9340
:102000000F900F900F900F900F90CF91DF91089548
:10201000DF93CF930F92CDB7DEB78983E4E4F0E08E
:10202000898180830F90CF91DF910895DF93CF93C3
:102030000F92CDB7DEB78983E3E4F0E08981808336
:102040000F90CF91DF910895DF93CF93CDB7DEB797
:10205000E4E4F0E08081CF91DF910895DF93CF93A6
:1020600000D000D0CDB7DEB79B838A838A819B8165
:10207000CC01A0E0B0E028EE33E040E050E0BC014D
:10208000CD010E943D25DC01CB012AEF30E040E08C
:1020900050E0BC01CD010E948325DA01C90189838A
:1020A0008AEF0E94161082E062E040E00E947E0FFC
:1020B0000CC0E8E5F0E080818823DCF7A8E5B0E01B
:1020C000E8E5F0E0808180688C9389818C838C8145
:1020D000882311F081E08C838C81998191509983C0
:1020E000882339F70F900F900F900F90CF91DF91C9
:1020F0000895DF93CF9300D000D00F92CDB7DEB715
:102100009C838B838B819C812AEF30E0B9010E94F4
:102110005C25CB019A8389838AEF0E94161082E0A6
:1021200062E040E00E947E0F0CC0E8E5F0E08081B4
:102130008823DCF7A8E5B0E0E8E5F0E0808180687E
:102140008C931D8289819A81009711F081E08D83A3
:1021500089819A8101979A8389838D81882329F7C0
:102160000F900F900F900F900F90CF91DF910895E7
:10217000DF93CF93CDB7DEB7A9E5B0E0E9E5F0E0B6
:10218000808180648C93CF91DF910895DF93CF930A
:10219000CDB7DEB7A9E5B0E0E9E5F0E080818F7B5F
:1021A0008C93CF91DF910895DF93CF93CDB7DEB7B6
:1021B000A9E5B0E0E9E5F0E0808180688C93CF91FB
:1021C000DF910895DF93CF93CDB7DEB7A9E5B0E0F7
:1021D000E9E5F0E080818F778C93CF91DF910895CE
:1021E000DF93CF9300D0CDB7DEB79A8389838981FF
:1021F0009A8190939D0180939C010F900F90CF91B5
:10220000DF910895DF93CF9300D0CDB7DEB79A83E7
:10221000898389819A8190939F0180939E010F9079
:102220000F90CF91DF9108951F920F920FB60F92EA
:1022300011242F933F934F935F936F937F938F93CB
:102240009F93AF93BF93EF93FF93DF93CF93CDB75C
:10225000DEB780919C0190919D01009729F0E0915B
:102260009C01F0919D010995CF91DF91FF91EF9134
:10227000BF91AF919F918F917F916F915F914F919E
:102280003F912F910F900FBE0F901F9018951F92A6
:102290000F920FB60F9211242F933F934F935F939A
:1022A0006F937F938F939F93AF93BF93EF93FF931E
:1022B000DF93CF93CDB7DEB780919E0190919F01C0
:1022C000009729F0E0919E01F0919F010995CF912F
:1022D000DF91FF91EF91BF91AF919F918F917F918E
:1022E0006F915F914F913F912F910F900FBE0F9083
:1022F0001F901895DF93CF930F92CDB7DEB78983E8
:10230000A6E5B0E0E6E5F0E0808180648C93898109
:10231000882331F0E2E2F0E08981880F808303C0F6
:10232000E2E2F0E01082A1E2B0E0E1E2F0E08081E0
:102330008E7F8C93A1E2B0E0E1E2F0E080818D7FBE
:102340008C93E0E2F0E082E08083A6E5B0E0E6E591
:10235000F0E0808184608C930F90CF91DF9108959D
:10236000DF93CF930F92CDB7DEB78983A6E5B0E0B8
:10237000E6E5F0E0808180648C93E2E2F0E0898120
:10238000880F8083A6E5B0E0E6E5F0E08081846018
:102390008C930F90CF91DF910895DF93CF930F929D
:1023A000CDB7DEB71982A6E5B0E0E6E5F0E08081C2
:1023B00080628C93A6E5B0E0E6E5F0E0808180687D
:1023C0008C93E6E5F0E080818823DCF7E1E2F0E041
:1023D0008081882F90E0887F90708830910511F07F
:1023E00081E0898389810F90CF91DF910895DF93F8
:1023F000CF930F92CDB7DEB71982A6E5B0E0E6E540
:10240000F0E0808180628C93A6E5B0E0E6E5F0E044
:10241000808180688C93E6E5F0E080818823DCF79A
:10242000E1E2F0E08081882F90E0887F9070803139
:10243000910511F082E0898389810F90CF91DF911E
:102440000895DF93CF9300D0CDB7DEB78A8319828A
:10245000E3E2F0E08A81880F8083A3E2B0E0E3E268
:10246000F0E080818E7F8C93A6E5B0E0E6E5F0E0B9
:1024700080818F7D8C93A6E5B0E0E6E5F0E0808179
:1024800080688C93E6E5F0E080818823DCF7E1E268
:10249000F0E08081882F90E0887F907088319105EE
:1024A00011F083E0898389810F900F90CF91DF91A4
:1024B0000895DF93CF9300D0CDB7DEB78A8319821A
:1024C000E3E2F0E08A81880F8083A3E2B0E0E3E2F8
:1024D000F0E0808181608C93A6E5B0E0E6E5F0E075
:1024E00080818F7D8C93A6E5B0E0E6E5F0E0808109
:1024F00080688C93E6E5F0E080818823DCF7E1E2F8
:10250000F0E08081882F90E0887F90708034910582
:1025100011F084E089830F900F90CF91DF9108959F
:10252000DF93CF9300D0CDB7DEB78A831982E3E281
:10253000F0E08A818083A6E5B0E0E6E5F0E0808106
:1025400080688C93E6E5F0E080818823DCF7E1E2A7
:10255000F0E08081882F90E0887F9070883291052C
:1025600011F085E0898389810F900F90CF91DF91E1
:102570000895DF93CF9300D00F92CDB7DEB79B8342
:102580008A831982A6E5B0E0E6E5F0E08081806804
:102590008C93E6E5F0E080818823DCF7E1E2F0E06F
:1025A0008081882F90E0887F90708035910519F0A8
:1025B00086E0898306C0E3E2F0E08081EA81FB8166
:1025C000808389810F900F900F90CF91DF910895B4
:1025D000DF93CF93CDB7DEB7A6E5B0E0E6E5F0E058
:1025E000808180618C93A6E5B0E0E6E5F0E0808133
:1025F00080688C93CF91DF910895DF93CF93CDB70F
:10260000DEB7ADE2B0E0EDE2F0E0808180628C9375
:10261000ADE2B0E0EDE2F0E0808180618C93ADE26C
:10262000B0E0EDE2F0E08081877F8C93ADE2B0E036
:10263000EDE2F0E0808184608C93ADE2B0E0EDE209
:10264000F0E0808181608C93ADE2B0E0EDE2F0E0FB
:10265000808182608C93ADE2B0E0EDE2F0E08081B9
:1026600080648C93CF91DF910895DF93CF93CDB7A2
:10267000DEB7ADE2B0E0EDE2F0E0808180628C9305
:10268000ADE2B0E0EDE2F0E080818F7E8C93ADE2D0
:10269000B0E0EDE2F0E08081877F8C93ADE2B0E0C6
:1026A000EDE2F0E0808184608C93ADE2B0E0EDE299
:1026B000F0E0808181608C93ADE2B0E0EDE2F0E08B
:1026C000808182608C93ADE2B0E0EDE2F0E0808149
:1026D00080648C93CF91DF910895DF93CF9300D0E6
:1026E0000F92CDB7DEB789837B836A83EEE2F0E099
:1026F00080818823DCF7EFE2F0E089818083EEE2DD
:10270000F0E080818823DCF78A819B81009731F09B
:10271000EFE2F0E08081EA81FB8180830F900F90EF
:102720000F90CF91DF910895DF93CF9300D0CDB775
:10273000DEB79A838983EEE2F0E080818823DCF7BC
:1027400089819A81009731F0EFE2F0E08081E981A0
:10275000FA8180830F900F90CF91DF910895DF93DE
:10276000CF9300D00F92CDB7DEB789838981282F10
:1027700030E03B832A838A819B818130910589F0F7
:102780002A813B8122303105A1F08A819B8100970B
:10279000B9F4ABE5B0E0EBE5F0E0808180648C93C8
:1027A0000FC0ABE5B0E0EBE5F0E0808180688C9392
:1027B00007C0ABE5B0E0EBE5F0E0808180628C9390
:1027C0000F900F900F90CF91DF910895DF93CF93EB
:1027D00000D00F92CDB7DEB789838981282F30E0F2
:1027E0003B832A838A819B818130910589F02A81EC
:1027F0003B8122303105A1F08A819B810097B9F499
:10280000ABE5B0E0EBE5F0E080818F7B8C930FC00F
:10281000ABE5B0E0EBE5F0E080818F778C9307C00B
:10282000ABE5B0E0EBE5F0E080818F7D8C930F901D
:102830000F900F90CF91DF910895DF93CF93CDB795
:10284000DEB72A970FB6F894DEBF0FBECDBF8983DF
:102850006A838981282F30E03A87298789859A857C
:102860008130910509F466C029853A852230310509
:1028700009F4BBC089859A85009709F0D5C08A8183
:10288000282F30E038872F838F81988581309105FC
:1028900021F12F813885223031052CF48F819885E4
:1028A000009761F0C1C02F8138852230310521F1B8
:1028B0008F8198858330910571F1B6C0A5E5B0E0B0
:1028C000E5E5F0E080818E7F8C93A5E5B0E0E5E55D
:1028D000F0E080818D7F8C93A7C0A5E5B0E0E5E5B1
:1028E000F0E0808181608C93A5E5B0E0E5E5F0E063
:1028F00080818D7F8C9398C0A5E5B0E0E5E5F0E0A0
:1029000080818E7F8C93A5E5B0E0E5E5F0E08081E5
:1029100082608C9389C0A5E5B0E0E5E5F0E08081B8
:1029200081608C93A5E5B0E0E5E5F0E08081826010
:102930008C937AC08A81282F30E03E832D838D814D
:102940009E818130910521F12D813E81223031051A
:102950002CF48D819E81009761F066C02D813E81AF
:102960002230310521F18D819E818330910571F1F5
:102970005BC0A5E5B0E0E5E5F0E080818B7F8C935E
:10298000A5E5B0E0E5E5F0E08081877F8C934CC061
:10299000A5E5B0E0E5E5F0E0808184608C93A5E5F5
:1029A000B0E0E5E5F0E08081877F8C933DC0A5E550
:1029B000B0E0E5E5F0E080818B7F8C93A5E5B0E0A9
:1029C000E5E5F0E0808188608C932EC0A5E5B0E05D
:1029D000E5E5F0E0808184608C93A5E5B0E0E5E575
:1029E000F0E0808188608C931FC08A81282F30E0BE
:1029F0003C832B838B819C818230910531F02B812C
:102A00003C812330310549F00FC0A5E5B0E0E5E594
:102A1000F0E080818F7B8C9307C0A5E5B0E0E5E511
:102A2000F0E0808180648C932A960FB6F894DEBF24
:102A30000FBECDBFCF91DF910895DF93CF9300D02C
:102A400000D00F92CDB7DEB789837B836A838981FB
:102A5000282F30E03D832C838C819D81813091052E
:102A600081F02C813D812230310591F08C819D8156
:102A70000097A1F48A819B819093A1018093A0018A
:102A80000DC08A819B819093A3018093A20106C00F
:102A90008A819B819093A5018093A4010F900F9050
:102AA0000F900F900F90CF91DF9108951F920F928A
:102AB0000FB60F9211242F933F934F935F936F9311
:102AC0007F938F939F93AF93BF93EF93FF93DF9386
:102AD000CF93CDB7DEB7E091A001F091A1010995A8
:102AE000CF91DF91FF91EF91BF91AF919F918F9126
:102AF0007F916F915F914F913F912F910F900FBEFA
:102B00000F901F9018951F920F920FB60F921124DD
:102B10002F933F934F935F936F937F938F939F93E5
:102B2000AF93BF93EF93FF93DF93CF93CDB7DEB710
:102B3000E091A201F091A3010995CF91DF91FF915E
:102B4000EF91BF91AF919F918F917F916F915F9125
:102B50004F913F912F910F900FBE0F901F9018959E
:102B60001F920F920FB60F9211242F933F934F9302
:102B70005F936F937F938F939F93AF93BF93EF93E5
:102B8000FF93DF93CF93CDB7DEB7E091A401F0912F
:102B9000A5010995CF91DF91FF91EF91BF91AF9181
:102BA0009F918F917F916F915F914F913F912F9165
:102BB0000F900FBE0F901F901895DF93CF93CDB756
:102BC000DEB72C970FB6F894DEBF0FBECDBF89835A
:102BD0006A838981282F30E03C872B878B859C85F1
:102BE00081309105E1F12B853C85223031052CF4B3
:102BF0008B859C85009771F09EC02B853C8522308B
:102C0000310509F451C08B859C858330910509F409
:102C10006FC091C08A81282F30E03A872987898543
:102C20009A858130910571F029853A8522303105E8
:102C300071F089859A85009709F07DC0EAE3F0E09C
:102C4000108279C0EAE3F0E08FEF808374C0EAE39A
:102C5000F0E01082EBE3F0E08FEF80836CC08A81BC
:102C6000282F30E038872F838F8198858130910518
:102C700071F02F8138852230310571F08F81988570
:102C8000009709F058C0E7E3F0E0108254C0E7E392
:102C9000F0E08FEF80834FC0E7E3F0E01082E8E3DD
:102CA000F0E08FEF808347C08A81282F30E03E8399
:102CB0002D838D819E818130910569F02D813E812A
:102CC0002230310569F08D819E810097A1F5E4E302
:102CD000F0E0108230C0E4E3F0E08FEF80832BC09F
:102CE000E4E3F0E01082E5E3F0E08FEF808323C0BF
:102CF0008A81282F30E03C832B838B819C8181301B
:102D0000910569F02B813C812230310569F08B817E
:102D10009C81009781F4E1E3F0E010820CC0E1E3D4
:102D2000F0E08FEF808307C0E1E3F0E01082E2E3A0
:102D3000F0E08FEF80832C960FB6F894DEBF0FBEC5
:102D4000CDBFCF91DF910895DF93CF9300D000D016
:102D5000CDB7DEB789836A838981282F30E03C8331
:102D60002B838B819C8181309105D1F02B813C811B
:102D7000223031052CF48B819C81009761F01EC0BC
:102D80002B813C812230310581F08B819C81833005
:102D9000910581F013C0EAE3F0E08A8180830EC0E0
:102DA000E7E3F0E08A81808309C0E4E3F0E08A8110
:102DB000808304C0E1E3F0E08A8180830F900F906C
:102DC0000F900F90CF91DF910895DF93CF93CDB700
:102DD000DEB72D970FB6F894DEBF0FBECDBF898347
:102DE0006A834B838981282F30E03D872C878C852F
:102DF0009D858130910509F47BC02C853D8522306D
:102E000031052CF48C859D85009771F09CC12C8533
:102E10003D852230310509F4CFC08C859D858330F6
:102E2000910509F42DC18FC18B81282F30E03B879C
:102E30002A878A859B8581309105F9F02A853B8513
:102E40002230310571F18A859B85009709F07BC19D
:102E5000AAE3B0E0EAE3F0E08081482F8A81282FDE
:102E600030E081E090E0022E02C0880F991F0A94A2
:102E7000E2F7809584238C9366C1AAE3B0E0EAE38D
:102E8000F0E08081482F8A81282F30E081E090E0B7
:102E9000022E02C0880F991F0A94E2F7842B8C93AC
:102EA00052C1AAE3B0E0EAE3F0E08081482F8A81D2
:102EB000282F30E081E090E002C0880F991F2A950A
:102EC000E2F7809584238C93ABE3B0E0EBE3F0E092
:102ED0008081482F8A81282F30E081E090E0022E07
:102EE00002C0880F991F0A94E2F7842B8C932BC1A0
:102EF0008B81282F30E03987288788859985813014
:102F00009105F9F0288539852230310571F18885E0
:102F10009985009709F017C1A7E3B0E0E7E3F0E077
:102F20008081482F8A81282F30E081E090E0022EB6
:102F300002C0880F991F0A94E2F7809584238C932E
:102F400002C1A7E3B0E0E7E3F0E08081482F8A8187
:102F5000282F30E081E090E0022E02C0880F991FF8
:102F60000A94E2F7842B8C93EEC0A7E3B0E0E7E38A
:102F7000F0E08081482F8A81282F30E081E090E0C6
:102F800002C0880F991F2A95E2F7809584238C93BD
:102F9000A8E3B0E0E8E3F0E08081482F8A81282FA1
:102FA00030E081E090E0022E02C0880F991F0A9461
:102FB000E2F7842B8C93C7C08B81282F30E03F83AE
:102FC0002E838E819F8181309105F9F02E813F8182
:102FD0002230310571F18E819F81009709F0B3C0D5
:102FE000A4E3B0E0E4E3F0E08081482F8A81282F59
:102FF00030E081E090E0022E02C0880F991F0A9411
:10300000E2F7809584238C939EC0A4E3B0E0E4E3D0
:10301000F0E08081482F8A81282F30E081E090E025
:10302000022E02C0880F991F0A94E2F7842B8C931A
:103030008AC0A4E3B0E0E4E3F0E08081482F8A8115
:10304000282F30E081E090E002C0880F991F2A9578
:10305000E2F7809584238C93A5E3B0E0E5E3F0E00C
:103060008081482F8A81282F30E081E090E0022E75
:1030700002C0880F991F0A94E2F7842B8C9363C0D7
:103080008B81282F30E03D832C838C819D81813082
:103090009105F9F02C813D812230310571F18C814F
:1030A0009D81009709F04FC0A1E3B0E0E1E3F0E0BB
:1030B0008081482F8A81282F30E081E090E0022E25
:1030C00002C0880F991F0A94E2F7809584238C939D
:1030D0003AC0A1E3B0E0E1E3F0E08081482F8A81CB
:1030E000282F30E081E090E0022E02C0880F991F67
:1030F0000A94E2F7842B8C9326C0A1E3B0E0E1E3CD
:10310000F0E08081482F8A81282F30E081E090E034
:1031100002C0880F991F2A95E2F7809584238C932B
:10312000A2E3B0E0E2E3F0E08081482F8A81282F1B
:1031300030E081E090E0022E02C0880F991F0A94CF
:10314000E2F7842B8C932D960FB6F894DEBF0FBE5A
:10315000CDBFCF91DF910895DF93CF9300D000D002
:10316000CDB7DEB789836A838981282F30E03C831D
:103170002B838B819C8181309105D1F02B813C8107
:10318000223031052CF48B819C81009761F01EC0A8
:103190002B813C812230310581F08B819C818330F1
:1031A000910581F013C0EBE3F0E08A8180830EC0CB
:1031B000E8E3F0E08A81808309C0E5E3F0E08A81FA
:1031C000808304C0E2E3F0E08A8180830F900F9057
:1031D0000F900F90CF91DF910895DF93CF9300D0A0
:1031E00000D00F92CDB7DEB789836A834B83898184
:1031F000282F30E03D832C838C819D818130910587
:1032000059F12C813D81223031052CF48C819D8136
:10321000009769F05FC02C813D812230310589F132
:103220008C819D818330910509F440C053C0ABE38C
:10323000B0E0EBE3F0E08081982F8B8180958923CB
:103240008C93ABE3B0E0EBE3F0E020819A818B81DB
:103250008923822B8C933EC0A8E3B0E0E8E3F0E042
:103260008081982F8B81809589238C93A8E3B0E08F
:10327000E8E3F0E020819A818B818923822B8C9373
:1032800029C0A5E3B0E0E5E3F0E08081982F8B81D1
:10329000809589238C93A5E3B0E0E5E3F0E02081FD
:1032A0009A818B818923822B8C9314C0A2E3B0E096
:1032B000E2E3F0E08081982F8B81809589238C93C5
:1032C000A2E3B0E0E2E3F0E020819A818B818923E0
:1032D000822B8C930F900F900F900F900F90CF91A7
:1032E000DF910895DF93CF9300D000D0CDB7DEB744
:1032F00089838981282F30E03C832B838B819C81BB
:1033000081309105D1F02B813C81223031052CF4A4
:103310008B819C81009761F01FC02B813C81223002
:10332000310581F08B819C818330910581F014C03F
:10333000E9E3F0E090819A8310C0E6E3F0E02081B9
:103340002A830BC0E3E3F0E030813A8306C0E0E378
:10335000F0E080818A8301C01A828A810F900F90E9
:103360000F900F90CF91DF910895DF93CF93CDB75A
:10337000DEB72D970FB6F894DEBF0FBECDBF8983A1
:103380006A834B838981282F30E03D872C878C8589
:103390009D858130910509F44FC02C853D852230F3
:1033A00031052CF48C859D85009771F0ECC02C853F
:1033B0003D852230310509F477C08C859D858330A9
:1033C000910509F4A9C0DFC08B81282F30E03B872D
:1033D0002A878A859B85009731F02A853B85213095
:1033E0003105B1F0D0C0ABE3B0E0EBE3F0E08081B9
:1033F000482F8A81282F30E081E090E0022E02C021
:10340000880F991F0A94E2F7809584238C93BBC0A0
:10341000ABE3B0E0EBE3F0E08081482F8A81282F16
:1034200030E081E090E0022E02C0880F991F0A94DC
:10343000E2F7842B8C93A7C08B81282F30E039874B
:10344000288788859985009731F02885398521302E
:103450003105B1F098C0A8E3B0E0E8E3F0E0808186
:10346000482F8A81282F30E081E090E0022E02C0B0
:10347000880F991F0A94E2F7809584238C9383C068
:10348000A8E3B0E0E8E3F0E08081482F8A81282FAC
:1034900030E081E090E0022E02C0880F991F0A946C
:1034A000E2F7842B8C936FC08B81282F30E03F8311
:1034B0002E838E819F81009731F02E813F812130B4
:1034C0003105B1F060C0A5E3B0E0E5E3F0E0808154
:1034D000482F8A81282F30E081E090E0022E02C040
:1034E000880F991F0A94E2F7809584238C934BC030
:1034F000A5E3B0E0E5E3F0E08081482F8A81282F42
:1035000030E081E090E0022E02C0880F991F0A94FB
:10351000E2F7842B8C9337C08B81282F30E03D83DA
:103520002C838C819D81009731F02C813D8121304D
:103530003105B1F028C0A2E3B0E0E2E3F0E0808121
:10354000482F8A81282F30E081E090E0022E02C0CF
:10355000880F991F0A94E2F7809584238C9313C0F7
:10356000A2E3B0E0E2E3F0E08081482F8A81282FD7
:1035700030E081E090E0022E02C0880F991F0A948B
:10358000E2F7842B8C932D960FB6F894DEBF0FBE16
:10359000CDBFCF91DF910895DF93CF9300D000D0BE
:1035A0000F92CDB7DEB789836A838981282F30E0F7
:1035B0003D832C834C815D814130510549F18C81E3
:1035C0009D818230910534F42C813D812115310596
:1035D00061F057C04C815D814230510561F18C81B1
:1035E0009D8183309105D1F14CC0E9E3F0E0808109
:1035F000282F30E08A81882F90E0A90102C05595DC
:1036000047958A95E2F7CA01582F51705B833AC0FB
:10361000E6E3F0E08081282F30E08A81882F90E077
:10362000A90102C0559547958A95E2F7CA01582F1E
:1036300051705B8327C0E3E3F0E08081282F30E006
:103640008A81882F90E0A90102C0559547958A95F7
:10365000E2F7CA01582F51705B8314C0E0E3F0E039
:103660008081282F30E08A81882F90E0A90102C054
:10367000559547958A95E2F7CA01582F51705B839B
:1036800001C01B828B810F900F900F900F900F90B5
:10369000CF91DF910895DF93CF9300D000D0CDB7C5
:1036A000DEB789836A838981282F30E03C832B83AE
:1036B0008B819C818130910549F12B813C812230A5
:1036C00031052CF48B819C81009761F05AC02B81CD
:1036D0003C812230310571F18B819C8183309105D1
:1036E000E9F14FC0ABE3B0E0EBE3F0E08081482FBD
:1036F0008A81282F30E081E090E0022E02C0880FFE
:10370000991F0A94E2F784278C933BC0A8E3B0E0AA
:10371000E8E3F0E08081482F8A81282F30E081E0C3
:1037200090E0022E02C0880F991F0A94E2F78427C6
:103730008C9327C0A5E3B0E0E5E3F0E08081482F5B
:103740008A81282F30E081E090E0022E02C0880FAD
:10375000991F0A94E2F784278C9313C0A2E3B0E088
:10376000E2E3F0E08081482F8A81282F30E081E079
:1037700090E0022E02C0880F991F0A94E2F7842776
:103780008C930F900F900F900F90CF91DF91089531
:10379000DF93CF93CDB7DEB7A6E2B0E0E6E2F0E08C
:1037A000808180688C93A6E2B0E0E6E2F0E0808160
:1037B000877F8C93A7E2B0E0E7E2F0E080818F732F
:1037C0008C93A7E2B0E0E7E2F0E0808180648C9324
:1037D000A6E2B0E0E6E2F0E08081887F8C93A6E28A
:1037E000B0E0E6E2F0E0808186608C93CF91DF91DB
:1037F0000895DF93CF9300D00F92CDB7DEB78983C2
:103800008981282F30E03B832A838A819B8100971E
:1038100031F02A813B812130310549F00FC0A6E209
:10382000B0E0E6E2F0E08081877F8C9307C0A6E2FB
:10383000B0E0E6E2F0E0808188608C930F900F901A
:103840000F90CF91DF910895DF93CF9300D0CDB744
:10385000DEB78A83A7E2B0E0E7E2F0E08081807E15
:103860008C93A7E2B0E0E7E2F0E090818A81892BB7
:103870008C93A6E2B0E0E6E2F0E0808180648C9375
:10388000E6E2F0E0808182958F70882F90E0817071
:1038900090700097A9F3A6E2B0E0E6E2F0E0808144
:1038A0008F7B8C93A6E2B0E0E6E2F0E080818F7E31
:1038B0008C93E4E2F0E080819181898389810F908B
:1038C0000F90CF91DF910895DF93CF930F92CDB7F3
:1038D000DEB78983A7E2B0E0E7E2F0E08081807E96
:1038E0008C93A7E2B0E0E7E2F0E090818981892B38
:1038F0008C93A6E2B0E0E6E2F0E0808180648C93F5
:10390000E6E2F0E0808182958F70882F90E08170F0
:1039100090700097A9F3A6E2B0E0E6E2F0E08081C3
:103920008F7B8C93A6E2B0E0E6E2F0E080818F7EB0
:103930008C93E4E2F0E0808191810F90CF91DF9150
:103940000895DF93CF9300D0CDB7DEB78A838FEF92
:1039500089838091AD018823D1F4A7E2B0E0E7E24A
:10396000F0E08081807E8C93A7E2B0E0E7E2F0E0B7
:1039700090818A81892B8C93A6E2B0E0E6E2F0E0A8
:10398000808180648C9381E08093AD010BC0809135
:10399000AD01823039F48091AE019091AF018983FD
:1039A0001092AD0189810F900F90CF91DF91089512
:1039B000DF93CF9300D00F92CDB7DEB78B838FEF1D
:1039C0009FEF9A8389838091AD018823D1F4A7E288
:1039D000B0E0E7E2F0E08081807E8C93A7E2B0E087
:1039E000E7E2F0E090818B81892B8C93A6E2B0E036
:1039F000E6E2F0E0808180648C9381E08093AD0109
:103A00000CC08091AD01823041F48091AE01909163
:103A1000AF019A8389831092AD0189819A810F90B9
:103A20000F900F90CF91DF9108951F920F920FB6D4
:103A30000F9211248F939F93EF93FF93DF93CF9374
:103A4000CDB7DEB782E08093AD01E4E2F0E08081A3
:103A500091819093AF018093AE01CF91DF91FF915F
:103A6000EF919F918F910F900FBE0F901F9018951F
:103A7000DF93CF9300D0CDB7DEB79A838983E981F6
:103A8000FA81808161E00E94DD15E981FA8120815F
:103A9000E981FA818181982F9095822F692F0E9468
:103AA000AC180F900F90CF91DF9108951F93DF9383
:103AB000CF9300D00F92CDB7DEB79A8389836B8303
:103AC000E981FA818181882361F4E981FA81108199
:103AD0008B810E94AB1D982F812F692F0E94AC18FB
:103AE00010C0E981FA818181813059F4E981FA813C
:103AF00010818B810E949A1E982F812F692F0E941E
:103B0000AC180F900F900F90CF91DF911F910895F7
:103B1000DF93CF9300D0CDB7DEB79A838983E98155
:103B2000FA818181882339F4E981FA8180816FEFFC
:103B30000E94AC180BC0E981FA818181813031F497
:103B4000E981FA81808160E00E94AC180F900F90AB
:103B5000CF91DF910895DF93CF9300D000D0CDB700
:103B6000DEB78A8319828A81282F30E03C832B8339
:103B70008B819C818134910509F4C3C02B813C81E8
:103B8000223431050CF04EC08B819C81843091052C
:103B900009F4A5C02B813C8125303105F4F48B81DB
:103BA0009C818130910509F491C02B813C812230A8
:103BB000310534F48B819C81009709F484C0B2C034
:103BC0002B813C812230310509F483C08B819C819B
:103BD0008330910509F480C0A5C02B813C8127303A
:103BE000310509F485C08B819C81883091056CF486
:103BF0002B813C812530310509F474C08B819C8177
:103C00008630910509F471C08DC02B813C8128302C
:103C1000310509F470C08B819C818930910509F4CC
:103C20006DC080C02B813C812136310509F469C00B
:103C30008B819C81823691052CF52B813C8124342B
:103C4000310509F467C08B819C81853491056CF442
:103C50002B813C812234310509F456C08B819C8133
:103C60008334910509F453C05DC02B813C81253418
:103C7000310509F452C08B819C818634910509F489
:103C80004FC050C02B813C812436310509F442C01D
:103C90008B819C81853691055CF42B813C81223699
:103CA000310591F18B819C818336910581F13AC078
:103CB0002B813C812536310581F18B819C818636B3
:103CC000910571F12FC080E889832CC089EF898329
:103CD00029C084EA898326C080EB898323C089E9CF
:103CE000898320C082E989831DC082E889831AC044
:103CF00088EF898317C080E8898314C080E98983AD
:103D000011C088E889830EC083E889830BC086ECE4
:103D1000898308C081EA898305C086E8898302C057
:103D20008EE8898389810F900F900F900F90CF912B
:103D3000DF910895DF93CF9300D000D0CDB7DEB7E9
:103D40008A8319828A81282F30E03C832B838B81E0
:103D50009C818134910509F4C3C02B813C812234BC
:103D600031050CF04EC08B819C818430910509F4A3
:103D7000A5C02B813C8125303105F4F48B819C81D9
:103D80008130910509F491C02B813C8122303105AD
:103D900034F48B819C81009709F484C0B2C02B81DC
:103DA0003C812230310509F483C08B819C818330B2
:103DB000910509F480C0A5C02B813C8127303105D5
:103DC00009F485C08B819C81883091056CF42B812E
:103DD0003C812530310509F474C08B819C8186308B
:103DE000910509F471C08DC02B813C8128303105CB
:103DF00009F470C08B819C818930910509F46DC0F4
:103E000080C02B813C812136310509F469C08B814A
:103E10009C81823691052CF52B813C81243431051F
:103E200009F467C08B819C81853491056CF42B81EA
:103E30003C812234310509F456C08B819C81833446
:103E4000910509F453C05DC02B813C8125343105B7
:103E500009F452C08B819C818634910509F44FC0CE
:103E600050C02B813C812436310509F442C08B813E
:103E70009C81853691055CF42B813C81223631058D
:103E800091F18B819C818336910581F13AC02B8120
:103E90003C812536310581F18B819C8186369105E7
:103EA00071F12FC08FE389832CC086E0898329C0FC
:103EB0008BE5898326C08FE4898323C086E68983C6
:103EC00020C08DE689831DC08DE789831AC087E0F5
:103ED000898317C08FE7898314C08FE6898311C057
:103EE00087E789830EC08CE789830BC089E38983C8
:103EF00008C08EE5898305C089E7898302C081E710
:103F0000898389810F900F900F900F90CF91DF914F
:103F10000895DF93CF9300D0CDB7DEB79A8389831E
:103F2000E981FA818081E981FA819181692F40E0FC
:103F30000E94E5168091A601882329F40E94C81BDF
:103F400081E08093A6010F900F90CF91DF910895AB
:103F5000DF93CF93CDB7DEB72D970FB6F894DEBFC2
:103F60000FBECDBF9D878C87EC85FD8581810E942A
:103F7000641C9B878A878A859B85CC01A0E0B0E082
:103F8000BC01CD010E940705DC01CB01BC01CD01C4
:103F900020E030E44CE955E40E941F02DC01CB0133
:103FA000BC01CD0120E030E040E854E40E94190358
:103FB000DC01CB018E839F83A887B9876E817F81C7
:103FC0008885998520E030E040E251E40E941903A1
:103FD000DC01CB018A839B83AC83BD836A817B81B7
:103FE0008C819D810E94B304DC01CB01AA2797FD3F
:103FF000A095BA2FBC01CD010E9455049B01AC01D4
:104000006A817B818C819D810E94C101DC01CB0191
:10401000BC01CD0120E030E040E05FE30E94F50309
:10402000882384F06A817B818C819D8120E030E04F
:1040300040E85FE30E94F201DC01CB018A839B83AD
:10404000AC83BD836A817B818C819D810E94490004
:10405000DC01CB01898389812D960FB6F894DEBFF0
:104060000FBECDBFCF91DF910895DF93CF9300D0E6
:10407000CDB7DEB79A83898389819A81009751F001
:10408000E981FA818081E981FA819181692F41E09A
:104090000E94E5160F900F90CF91DF910895DF9366
:1040A000CF9300D0CDB7DEB79A83898389819A8177
:1040B000009769F0E981FA818081E981FA812181A3
:1040C000E981FA819281622F492F0E94B5190F90E0
:1040D0000F90CF91DF910895DF93CF9300D000D060
:1040E0000F92CDB7DEB79A83898389819A81009731
:1040F000A9F0E981FA8180818D83E981FA8181814A
:104100008C83E981FA8182811B82882311F481E00A
:104110008B838D816C814B810E94B5190F900F901C
:104120000F900F900F90CF91DF910895DF93CF9371
:10413000CDB7DEB72E970FB6F894DEBF0FBECDBF5A
:1041400082E061E00E94DD1583E060E041E00E94D2
:10415000E51683E062E041E00E94E51680E090E031
:10416000A8E4B2E48B879C87AD87BE876B857C858E
:104170008D859E8520E030E04AEF54E40E941F02C6
:10418000DC01CB018F839887A987BA876F817885F7
:1041900089859A8520E030E040E85FE30E942504AD
:1041A00088232CF481E090E09E838D833FC06F8153
:1041B000788589859A8520E03FEF4FE757E40E9494
:1041C000C50318164CF56B857C858D859E8520E092
:1041D00030E040E251E40E941F02DC01CB01BC014F
:1041E000CD010E944900DC01CB019E838D830FC06D
:1041F00088EC90E09C838B838B819C810197F1F705
:104200009C838B838D819E8101979E838D838D817D
:104210009E81009769F714C06F81788589859A859A
:104220000E944900DC01CB019E838D838D819E819C
:104230009A83898389819A810197F1F79A83898387
:1042400088E30E94D0218CE00E94D02181E00E946E
:10425000D0212E960FB6F894DEBF0FBECDBFCF9102
:10426000DF910895DF93CF93CDB7DEB72F970FB6C9
:10427000F894DEBF0FBECDBF8F8783E060E041E0E2
:104280000E94B51982E06F850E94AC1883E062E05D
:1042900040E00E94B51983E062E041E00E94B51958
:1042A00080E090E0A0E0B0E48B879C87AD87BE877C
:1042B0006B857C858D859E8520E030E04AEF54E457
:1042C0000E941F02DC01CB018F839887A987BA87E0
:1042D0006F81788589859A8520E030E040E85FE34A
:1042E0000E94250488232CF481E090E09E838D8336
:1042F0003FC06F81788589859A8520E03FEF4FE741
:1043000057E40E94C50318164CF56B857C858D8596
:104310009E8520E030E040E251E40E941F02DC0173
:10432000CB01BC01CD010E944900DC01CB019E8381
:104330008D830FC088EC90E09C838B838B819C8164
:104340000197F1F79C838B838D819E8101979E83DA
:104350008D838D819E81009769F714C06F81788568
:1043600089859A850E944900DC01CB019E838D835B
:104370008D819E819A83898389819A810197F1F742
:104380009A83898383E062E040E00E94B5192F960A
:104390000FB6F894DEBF0FBECDBFCF91DF91089569
:1043A000DF93CF93CDB7DEB72F970FB6F894DEBF6C
:1043B0000FBECDBF8F8783E060E040E00E94B5195B
:1043C00082E06F850E94AC1883E062E040E00E94CA
:1043D000B51983E062E041E00E94B51980E090E009
:1043E000A0E0B0E48B879C87AD87BE876B857C851A
:1043F0008D859E8520E030E04AEF54E40E941F0244
:10440000DC01CB018F839887A987BA876F81788574
:1044100089859A8520E030E040E85FE30E9425042A
:1044200088232CF481E090E09E838D833FC06F81D0
:10443000788589859A8520E03FEF4FE757E40E9411
:10444000C50318164CF56B857C858D859E8520E00F
:1044500030E040E251E40E941F02DC01CB01BC01CC
:10446000CD010E944900DC01CB019E838D830FC0EA
:1044700088EC90E09C838B838B819C810197F1F782
:104480009C838B838D819E8101979E838D838D81FB
:104490009E81009769F714C06F81788589859A8518
:1044A0000E944900DC01CB019E838D838D819E811A
:1044B0009A83898389819A810197F1F79A83898305
:1044C00083E062E040E00E94B5192F960FB6F894A1
:1044D000DEBF0FBECDBFCF91DF910895DF93CF93A5
:1044E00000D00F92CDB7DEB78A836B8319828A81A1
:1044F000882331F48B81803160F48B81898309C0FA
:104500008A81813031F48B81803118F48B81805C19
:10451000898389818058898389810E94D0210F9065
:104520000F900F90CF91DF910895DF93CF9300D03C
:104530000F92CDB7DEB79B838A8319820EC0898123
:10454000282F30E08A819B81FC01E20FF31F8081DC
:104550000E94322189818F5F89838981282F30E0F1
:104560008A819B81FC01E20FF31F8081882339F748
:104570000F900F900F90CF91DF910895DF93CF931D
:10458000CDB7DEB72E970FB6F894DEBF0FBECDBF06
:104590009E878D878AE0FE013396DF01982F1D925A
:1045A0009A95E9F71A8219828D859E85992314F0D0
:1045B00019820DC081E089838D859E8501979E8734
:1045C0008D878D859E85809590959E878D878D851D
:1045D0009E85009781F58A81282F332727FD309506
:1045E000CE010396FC01E20FF31F80E380838A81F2
:1045F0008F5F8A8320C08A81E82FFF27E7FDF0952F
:104600008D859E852AE030E0B9010E947025282F13
:10461000205DCE010396E80FF91F20838D859E85CE
:104620002AE030E0B9010E947025CB019E878D877A
:104630008A818F5F8A838D859E850097E1F68A81C6
:1046400081508A8389818130A1F48DE20E943221D8
:1046500010C08A81282F332727FD3095CE0103967D
:10466000FC01E20FF31F80810E9432218A81815078
:104670008A838A8188236CF72E960FB6F894DEBF62
:104680000FBECDBFCF91DF910895DF93CF93CDB70C
:10469000DEB727970FB6F894DEBF0FBECDBF9C8361
:1046A0008B836D834E832F831A8219828D81882F8D
:1046B00090E0880F991F880F991F880F991F898391
:1046C00089818064898389810E94D0211A820EC0E9
:1046D0008A81282F30E08B819C81FC01E20FF31F3F
:1046E00080810E9432218A818F5F8A838A8188300B
:1046F00078F38E816F810E946E228D810E9432211B
:1047000027960FB6F894DEBF0FBECDBFCF91DF91D5
:104710000895DF93CF93CDB7DEB78CE00E94D02110
:10472000CF91DF910895DF93CF93CDB7DEB788E0C7
:104730000E94D021CF91DF910895DF93CF93CDB721
:10474000DEB781E00E94D021CF91DF910895DF9301
:10475000CF93CDB7DEB78EE00E94D021CF91DF910D
:104760000895DF93CF93CDB7DEB78FE00E94D021BD
:10477000CF91DF910895DF93CF93CDB7DEB78CE073
:104780000E94D021CF91DF910895DF93CF93CDB7D1
:10479000DEB782E060E042E00E94E51682E061E080
:1047A00042E00E94E51682E062E042E00E94E516E7
:1047B00082E062E042E00E94E51682E060E041E0D3
:1047C0000E94E51682E061E041E00E94E51682E089
:1047D00062E041E00E94E51682E062E041E00E9472
:1047E000E516CF91DF910895DF93CF9300D000D0ED
:1047F0000F92CDB7DEB78FEF89831B8257C08B81B5
:10480000882F90E0FC01EC58FE4F908182E0692FE8
:1048100040E00E94B5191C8237C08C81882F90E03F
:10482000FC01E858FE4F908182E0692F0E94CC1A6B
:104830008A838A81882329F58C81482F50E08B81D7
:10484000282F30E0CA01880F991F880F991F820F07
:10485000931FFC01E458FE4F808189830CC08C813A
:10486000882F90E0FC01E858FE4F908182E0692F8C
:104870000E94CC1A8A838A81882389F389818D8357
:104880001BC08C818F5F8C838C81843030F28B8154
:10489000882F90E0FC01EC58FE4F908182E0692F58
:1048A00041E00E94B5198B818F5F8B838B818430AF
:1048B00008F4A5CF89818D838D810F900F900F9083
:1048C0000F900F90CF91DF910895DF93CF9300D099
:1048D00000D0CDB7DEB79B838A836C838A819B81AE
:1048E000892F9927806589830E94CD1189810E9433
:1048F00021128A810E9490128C810E9490120E9443
:10490000E8120F900F900F900F90CF91DF910895C4
:10491000DF93CF9300D000D00F92CDB7DEB79B834B
:104920008A837D836C838A819B81892F9927806507
:1049300089830E94CD1189810E9421128A810E945F
:1049400090120E94F71189810E9459128C819D81D9
:104950000E94B9120E94E8120F900F900F900F90D2
:104960000F90CF91DF910895DF93CF93CDB7DEB74E
:1049700078940E94962082E063E040E00E943E0925
:1049800088EC0E94D7090E944B0B80E095E20E94C0
:10499000790B80E060E00E946E2280E690E00E9449
:1049A000952280E064E00E946E2280918C01882F25
:1049B00090E00E94BE2280E068E00E946E2284E6C1
:1049C00090E00E94952280E06DE00E946E2280912E
:1049D0008D01882F90E00E94BE2281E060E00E945D
:1049E0006E2288E690E00E94952281E063E00E94BA
:1049F0006E2280918E01882F90E00E94BE22C9CF46
:104A0000DF93CF93CDB7DEB78091A7019091A80136
:104A100001969093A8018093A7018091A70190919E
:104A2000A80122E08137920749F480918C018F5FC1
:104A300080938C011092A8011092A70180918C01A3
:104A40008C3339F480918D018F5F80938D011092AA
:104A50008C0180918D018C3339F480918E018F5FB0
:104A600080938E0110928D0180918E018C3011F413
:104A700010928E01CF91DF910895629FD001739FB4
:104A8000F001829FE00DF11D649FE00DF11D929FEA
:104A9000F00D839FF00D749FF00D659FF00D992729
:104AA000729FB00DE11DF91F639FB00DE11DF91F4D
:104AB000BD01CF0111240895AA1BBB1B51E107C002
:104AC000AA1FBB1FA617B70710F0A61BB70B881F9E
:104AD000991F5A95A9F780959095BC01CD0108952D
:104AE00097FB092E07260AD077FD04D0E5DF06D014
:104AF00000201AF4709561957F4F0895F6F7909510
:104B000081959F4F0895A1E21A2EAA1BBB1BFD01A0
:104B10000DC0AA1FBB1FEE1FFF1FA217B307E4079C
:104B2000F50720F0A21BB30BE40BF50B661F771FF4
:104B3000881F991F1A9469F76095709580959095D4
:104B40009B01AC01BD01CF0108952F923F924F927E
:104B50005F926F927F928F929F92AF92BF92CF920D
:104B6000DF92EF92FF920F931F93CF93DF93CDB716
:104B7000DEB7CA1BDB0B0FB6F894DEBF0FBECDBF8E
:104B800009942A88398848885F846E847D848C845F
:104B90009B84AA84B984C884DF80EE80FD800C8168
:104BA0001B81AA81B981CE0FD11D0FB6F894DEBF4B
:0C4BB0000FBECDBFED010895F894FFCFBB
:104BBC00733A20006D3A2000683A20000000000093
:104BCC0000000000000102020303030304040404B8
:104BDC00040404040505050505050505050505057D
:104BEC00050505050606060606060606060606065D
:104BFC000606060606060606060606060606060649
:104C0C00060606060707070707070707070707072C
:104C1C000707070707070707070707070707070718
:104C2C000707070707070707070707070707070708
:104C3C0007070707070707070707070707070707F8
:104C4C0007070707080808080808080808080808DC
:104C5C0008080808080808080808080808080808C8
:104C6C0008080808080808080808080808080808B8
:104C7C0008080808080808080808080808080808A8
:104C8C000808080808080808080808080808080898
:104C9C000808080808080808080808080808080888
:104CAC000808080808080808080808080808080878
:104CBC000808080808080808080808080808080868
:104CCC000808080800010202000102023738392BDB
:104CDC003435362D3132332A23303D2F1E3A0B001A
:00000001FF
