:100000000C942A000C9487070C94C6070C940508DE
:100010000C9447000C9447000C9447000C94470044
:100020000C9447000C9447000C9447000C94470034
:100030000C9447000C9447000C9447000C94470024
:100040000C94740D0C9447000C9447000C944700DA
:100050000C94470011241FBECFE5D8E0DEBFCDBF12
:1000600010E0A0E6B0E0E6E0F4E202C005900D92F8
:10007000A038B107D9F710E0A0E8B0E001C01D92A8
:10008000AA38B107E1F70E94A1110C9401120C9457
:100090000000EF92FF920F931F937B018C0120E0F1
:1000A00030E040E05FE40E94490388238CF0C801FF
:1000B000B70120E030E040E05FE40E94C1010E940F
:1000C000A9039B01AC01205030404040504806C07D
:1000D000C801B7010E94A9039B01AC01B901CA0183
:1000E0001F910F91FF90EF900895A0E0B0E0EBE733
:1000F000F0E00C94CA11DC012B01FA019C919230C2
:1001000008F439C1EB018881823008F433C194309E
:1001100069F4843009F02FC111969C91119789815F
:10012000981709F428C1A0E6B0E025C1843009F48D
:1001300021C18230A9F4923009F01DC19A01AD01AC
:1001400088E0EA010990AE01E90109929E0181501F
:10015000C1F7E201898111969C918923818308C1AD
:10016000923009F407C112962D903C901397EB0141
:100170008A819B811496AD90BD90CD90DC901797AD
:10018000EC80FD800E811F819101281B390BB90184
:1001900037FF04C066277727621B730B6032710537
:1001A0000CF061C0121613066CF537014801062EDB
:1001B00004C096948794779467940A94D2F721E0C8
:1001C00030E040E050E004C0220F331F441F551FB1
:1001D0006A95D2F721503040404050402E213F21B7
:1001E00040235123211531054105510521F021E01E
:1001F00030E040E050E079018A01E628F72808293C
:1002000019293CC0232BD1F1260E371E350146019A
:10021000062E04C096948794779467940A94D2F734
:1002200021E030E040E050E004C0220F331F441FC3
:10023000551F6A95D2F721503040404050402A2146
:100240003B214C215D21211531054105510521F04E
:1002500021E030E040E050E059016A01A628B728CB
:10026000C828D9280BC0821593052CF01C01AA249C
:10027000BB24650103C0EE24FF24870111969C91E5
:10028000D20111968C91981709F445C0992339F041
:10029000A80197012A193B094C095D0906C0A6016E
:1002A00095012E193F09400B510B57FD08C01182D3
:1002B0003382228224833583468357831DC081E0A5
:1002C00081833382228288279927DC01821B930B4A
:1002D000A40BB50B84839583A683B7830DC0220F2F
:1002E000331F441F551F24833583468357838281E0
:1002F000938101979383828324813581468157813D
:10030000DA01C9010197A109B1098F5F9F4FAF4F72
:10031000BF4328F30BC0918333822282EA0CFB1C7B
:100320000C1D1D1DE482F5820683178383E0808304
:10033000248135814681578157FF1AC0C901AA27F8
:1003400097FDA095BA2F81709070A070B0705695EF
:10035000479537952795822B932BA42BB52B848318
:100360009583A683B7838281938101969383828349
:10037000DF0101C0D201CD01CDB7DEB7E2E10C94BF
:10038000E611A0E2B0E0E7ECF1E00C94D61169834D
:100390007A838B839C832D833E834F835887E9E048
:1003A000EE2EF12CEC0EFD1ECE010196B7010E943F
:1003B000D2048E010F5E1F4FCE010596B8010E9438
:1003C000D2048A8991E089278A8BC701B801AE01DE
:1003D000475E5F4F0E9475000E94FD03A096E6E015
:1003E0000C94F211A0E2B0E0E8EFF1E00C94D61129
:1003F00069837A838B839C832D833E834F835887C5
:10040000F9E0EF2EF12CEC0EFD1ECE010196B701A6
:100410000E94D2048E010F5E1F4FCE010596B801D7
:100420000E94D204C701B801AE01475E5F4F0E942F
:1004300075000E94FD03A096E6E00C94F211A0E284
:10044000B0E0E5E2F2E00C94CA1169837A838B8311
:100450009C832D833E834F835887CE010196BE0136
:10046000675F7F4F0E94D204CE010596BE016F5E8A
:100470007F4F0E94D2049985923088F0898982301A
:10048000C8F0943019F4823051F404C0843029F457
:10049000923081F480E690E0C6C0923049F420E0CA
:1004A0009A858A89981321E02A87CE010996BBC0D4
:1004B000823049F420E09A858A89981321E02A8BBA
:1004C000CE014196B0C02D843E844F8458886D88FB
:1004D0007E888F88988CEE24FF248701AA24BB2471
:1004E000650140E050E060E070E0E0E0F0E0C10174
:1004F00081709070892BE9F0E60CF71C081D191D1E
:100500009A01AB012A0D3B1D4C1D5D1D80E090E062
:10051000A0E0B0E0E614F7040805190520F481E036
:1005200090E0A0E0B0E0BA01A901480F591F6A1F8E
:100530007B1FAA0CBB1CCC1CDD1C97FE08C081E0F5
:1005400090E0A0E0B0E0A82AB92ACA2ADB2A3196B6
:10055000E032F10549F0660C771C881C991C569412
:10056000479437942794C3CFFA85EA892B893C892D
:100570008B859C85280F391F2E5F3F4F17C0CA01FE
:1005800081709070892B61F016950795F794E79428
:1005900080E090E0A0E0B0E8E82AF92A0A2B1B2BC3
:1005A00076956795579547952F5F3F4F77FDE7CF36
:1005B0000CC0440F551F661F771F17FD4160EE0CDE
:1005C000FF1C001F111F21503040403090E05907A0
:1005D00090E0690790E4790760F32B8F3C8FDB0193
:1005E000CA018F779070A070B07080349105A1051A
:1005F000B10561F447FD0AC0E114F10401051105DC
:1006000029F0405C5F4F6F4F7F4F40781A8EFE1786
:1006100011F081E08A8F4D8F5E8F6F8F78A383E01A
:10062000898FCE0149960E94FD03A096E2E10C94C9
:10063000E611A8E1B0E0EFE1F3E00C94D611698394
:100640007A838B839C832D833E834F83588789E0F5
:10065000E82EF12CEC0EFD1ECE010196B7010E9492
:10066000D2048E010F5E1F4FCE010596B8010E9485
:10067000D2048985823040F08989823028F0C70110
:10068000B8010E944A0501C08FEF6896E6E00C941D
:10069000F211A8E1B0E0EFE4F3E00C94D611698325
:1006A0007A838B839C832D833E834F83588789E095
:1006B000E82EF12CEC0EFD1ECE010196B7010E9432
:1006C000D2048E010F5E1F4FCE010596B8010E9425
:1006D000D2048985823040F08989823028F0C701B0
:1006E000B8010E944A0501C08FEF6896E6E00C94BD
:1006F000F211A8E1B0E0EFE7F3E00C94D6116983C2
:100700007A838B839C832D833E834F83588789E034
:10071000E82EF12CEC0EFD1ECE010196B7010E94D1
:10072000D2048E010F5E1F4FCE010596B8010E94C4
:10073000D2048985823040F08989823028F0C7014F
:10074000B8010E944A0501C081E06896E6E00C9479
:10075000F211ACE0B0E0EFEAF3E00C94DA11698357
:100760007A838B839C83CE010196BE016B5F7F4FA2
:100770000E94D2048D81823061F1823050F1843048
:1007800021F48E81882351F12EC02F81388537FDC9
:1007900020C06E812F3131051CF06623F9F023C093
:1007A0008EE190E0821B930B29853A854B855C8511
:1007B00004C056954795379527958A95D2F76623B5
:1007C000B1F050954095309521953F4F4F4F5F4F79
:1007D0000EC020E030E040E050E009C02FEF3FEFD6
:1007E0004FEF5FE704C020E030E040E050E8B9019F
:1007F000CA012C96E2E00C94F611DF92EF92FF9280
:100800000F931F93FC01E480F58006811781D1804E
:100810008081823048F480E090E0A0E1B0E0E82AF6
:10082000F92A0A2B1B2BA5C0843009F49FC0823003
:1008300021F4EE24FF24870105C0E114F104010531
:10084000110519F4E0E0F0E096C0628173819FEF3A
:10085000623879070CF05BC022E83FEF261B370BAC
:100860002A3131052CF020E030E040E050E02AC091
:10087000B801A701022E04C0769567955795479554
:100880000A94D2F781E090E0A0E0B0E004C0880FC5
:10089000991FAA1FBB1F2A95D2F70197A109B10979
:1008A0008E219F21A023B1230097A105B10521F03E
:1008B00081E090E0A0E0B0E09A01AB01282B392B59
:1008C0004A2B5B2BDA01C9018F779070A070B07052
:1008D00080349105A105B10539F427FF09C0205CDA
:1008E0003F4F4F4F5F4F04C0215C3F4F4F4F5F4F13
:1008F000E0E0F0E02030A0E03A07A0E04A07A0E402
:100900005A0710F0E1E0F0E079018A0127C0603871
:10091000710564F5FB01E158FF4FD801C7018F77DE
:100920009070A070B07080349105A105B10539F4C4
:10093000E7FE0DC080E490E0A0E0B0E004C08FE3EB
:1009400090E0A0E0B0E0E80EF91E0A1F1B1F17FFA1
:1009500005C016950795F794E794319687E01695AC
:100960000795F794E7948A95D1F705C0EE24FF2404
:100970008701EFEFF0E06E2F679566276795902F60
:100980009F77D794DD24D7948E2F8695492F462BB9
:10099000582F5D29B701CA011F910F91FF90EF9069
:1009A000DF900895FC01DB01408151812281622F9B
:1009B0006F7770E0221F2227221F9381892F880FD3
:1009C000822B282F30E0991F9927991F11969C930D
:1009D000119721153105A9F54115510561057105DD
:1009E00011F482E037C082E89FEF13969C938E93B8
:1009F00012979A01AB0167E0220F331F441F551F66
:100A00006A95D1F783E08C930DC0220F331F441FEA
:100A1000551F12968D919C911397019713969C9355
:100A20008E931297203080E0380780E0480780E4FA
:100A3000580758F314962D933D934D935C93179755
:100A400008952F3F310579F4411551056105710570
:100A500019F484E08C93089564FF03C081E08C93C3
:100A600012C01C9210C02F57304013963C932E9307
:100A7000129783E08C9387E0440F551F661F771F02
:100A80008A95D1F7706414964D935D936D937C9322
:100A9000179708951F93DC01FB019C91923008F495
:100AA00047C08081823008F443C0943051F41196DD
:100AB0001C91843099F58181682F70E0611B710968
:100AC0003FC0843021F0923031F48230B9F181811D
:100AD000882389F12DC011961C9111978230F1F075
:100AE00081811817D9F412962D913C911397828128
:100AF00093818217930794F028173907BCF0149656
:100B00008D919D910D90BC91A02D248135814681C0
:100B10005781281739074A075B0718F4112341F05A
:100B20000AC082179307A407B50740F4112319F0F0
:100B300061E070E005C06FEF7FEF02C060E070E041
:100B4000CB011F910895DF93CF93CDB7DEB7AFE50B
:100B5000B0E0EFE5F0E0808180688C93CF91DF9189
:100B60000895DF93CF93CDB7DEB7AFE5B0E0EFE503
:100B7000F0E080818F778C93CF91DF910895DF93A0
:100B8000CF9300D00F92CDB7DEB789838981282F0C
:100B900030E03B832A838A819B8181309105A1F0DB
:100BA0002A813B8122303105D1F08A819B810097D7
:100BB00001F583E062E040E00E94320883E062E0F9
:100BC00041E00E94240915C083E063E040E00E94F8
:100BD000320883E063E041E00E9424090AC081E01A
:100BE00062E040E00E94320881E062E041E00E9461
:100BF00024090F900F900F90CF91DF910895DF930C
:100C0000CF9300D00F92CDB7DEB789838981282F8B
:100C100030E03B832A838A819B818130910589F072
:100C20002A813B8122303105A1F08A819B81009786
:100C3000B9F4ABE5B0E0EBE5F0E0808180648C9343
:100C40000FC0ABE5B0E0EBE5F0E0808180688C930D
:100C500007C0ABE5B0E0EBE5F0E0808180628C930B
:100C60000F900F900F90CF91DF910895DF93CF9366
:100C700000D00F92CDB7DEB789838981282F30E06D
:100C80003B832A838A819B818130910589F02A8167
:100C90003B8122303105A1F08A819B810097B9F414
:100CA000ABE5B0E0EBE5F0E080818F7B8C930FC08B
:100CB000ABE5B0E0EBE5F0E080818F778C9307C087
:100CC000ABE5B0E0EBE5F0E080818F7D8C930F9099
:100CD0000F900F90CF91DF910895DF93CF93CDB711
:100CE000DEB72A970FB6F894DEBF0FBECDBF89835B
:100CF0006A838981282F30E03A87298789859A85F8
:100D00008130910509F466C029853A852230310584
:100D100009F4BBC089859A85009709F0DDC08A81F6
:100D2000282F30E038872F838F8198858130910577
:100D300021F12F813885223031052CF48F8198855F
:100D4000009761F0C9C02F8138852230310521F12B
:100D50008F8198858330910571F1BEC0A5E5B0E023
:100D6000E5E5F0E080818E7F8C93A5E5B0E0E5E5D8
:100D7000F0E080818D7F8C93AFC0A5E5B0E0E5E524
:100D8000F0E0808181608C93A5E5B0E0E5E5F0E0DE
:100D900080818D7F8C93A0C0A5E5B0E0E5E5F0E013
:100DA00080818E7F8C93A5E5B0E0E5E5F0E0808161
:100DB00082608C9391C0A5E5B0E0E5E5F0E080812C
:100DC00081608C93A5E5B0E0E5E5F0E0808182608C
:100DD0008C9382C08A81282F30E03E832D838D81C1
:100DE0009E818130910521F12D813E812230310596
:100DF0002CF48D819E81009761F06EC02D813E8123
:100E00002230310521F18D819E818330910571F170
:100E100063C0A5E5B0E0E5E5F0E080818B7F8C93D1
:100E2000A5E5B0E0E5E5F0E08081877F8C9354C0D4
:100E3000A5E5B0E0E5E5F0E0808184608C93A5E570
:100E4000B0E0E5E5F0E08081877F8C9345C0A5E5C3
:100E5000B0E0E5E5F0E080818B7F8C93A5E5B0E024
:100E6000E5E5F0E0808188608C9336C0A5E5B0E0D0
:100E7000E5E5F0E0808184608C93A5E5B0E0E5E5F0
:100E8000F0E0808188608C9327C08A81282F30E031
:100E90003C832B838B819C818230910531F02B81A7
:100EA0003C812330310549F010C0A4E5B0E0E4E511
:100EB000F0E080818F7B8C930FC0A4E5B0E0E4E587
:100EC000F0E0808180648C9307C0A4E5B0E0E4E5A5
:100ED000F0E080818F7B8C932A960FB6F894DEBF6A
:100EE0000FBECDBFCF91DF910895DF93CF9300D098
:100EF000CDB7DEB79A83898389819A8190938100E7
:100F0000809380000F900F90CF91DF9108951F92F2
:100F10000F920FB60F9211242F933F934F935F932D
:100F20006F937F938F939F93AF93BF93EF93FF93B1
:100F3000DF93CF93CDB7DEB7E0918000F0918100D1
:100F40000995CF91DF91FF91EF91BF91AF919F9163
:100F50008F917F916F915F914F913F912F910F9062
:100F60000FBE0F901F901895DF93CF9300D0CDB791
:100F7000DEB79A83898389819A81909383008093D5
:100F800082000F900F90CF91DF9108951F920F92E2
:100F90000FB60F9211242F933F934F935F936F934C
:100FA0007F938F939F93AF93BF93EF93FF93DF93C1
:100FB000CF93CDB7DEB7E0918200F0918300099521
:100FC000CF91DF91FF91EF91BF91AF919F918F9161
:100FD0007F916F915F914F913F912F910F900FBE35
:100FE0000F901F901895DF93CF9300D0CDB7DEB749
:100FF0009A83898389819A81909385008093840064
:101000000F900F90CF91DF9108951F920F920FB61E
:101010000F9211242F933F934F935F936F937F937E
:101020008F939F93AF93BF93EF93FF93DF93CF93F0
:10103000CDB7DEB7E0918400F09185000995CF919E
:10104000DF91FF91EF91BF91AF919F918F917F9130
:101050006F915F914F913F912F910F900FBE0F9025
:101060001F901895DF93CF9300D000D00F92CDB78B
:10107000DEB789836A834B838981282F30E03D83E3
:101080002C838C819D818130910509F447C02C818E
:101090003D81223031052CF48C819D81009771F0C7
:1010A000CBC02C813D812230310509F467C08C8191
:1010B0009D818330910509F491C0BEC08B81813040
:1010C000A1F4AAE3B0E0EAE3F0E08081482F8A814E
:1010D000282F30E081E090E0022E02C0880F991F97
:1010E0000A94E2F7842B8C93A7C08B81882309F0A4
:1010F000A3C0AAE3B0E0EAE3F0E08081482F8A8150
:10110000282F30E081E090E0022E02C0880F991F66
:101110000A94E2F7809584238C938EC08B81813072
:10112000A1F4A7E3B0E0E7E3F0E08081482F8A81F3
:10113000282F30E081E090E0022E02C0880F991F36
:101140000A94E2F7842B8C9377C08B81882309F073
:1011500073C0A7E3B0E0E7E3F0E08081482F8A8125
:10116000282F30E081E090E0022E02C0880F991F06
:101170000A94E2F7809584238C935EC08B81813042
:10118000A1F4A4E3B0E0E4E3F0E08081482F8A8199
:10119000282F30E081E090E0022E02C0880F991FD6
:1011A0000A94E2F7842B8C9347C08B81882309F043
:1011B00043C0A4E3B0E0E4E3F0E08081482F8A81FB
:1011C000282F30E081E090E0022E02C0880F991FA6
:1011D0000A94E2F7809584238C932EC08B81813012
:1011E000A1F4A1E3B0E0E1E3F0E08081482F8A813F
:1011F000282F30E081E090E0022E02C0880F991F76
:101200000A94E2F7842B8C9317C08B818823A1F476
:10121000A1E3B0E0E1E3F0E08081482F8A81282F4C
:1012200030E081E090E0022E02C0880F991F0A94FE
:10123000E2F7809584238C930F900F900F900F907E
:101240000F90CF91DF910895DF93CF93CDB7DEB7A5
:101250002D970FB6F894DEBF0FBECDBF89836A838A
:101260004B838981282F30E03D872C878C859D8595
:101270008130910509F44FC02C853D852230310520
:101280002CF48C859D85009771F0ECC02C853D85F4
:101290002230310509F477C08C859D858330910516
:1012A00009F4A9C0DFC08B81282F30E03B872A8753
:1012B0008A859B85009731F02A853B852130310551
:1012C000B1F0D0C0ABE3B0E0EBE3F0E08081482FB9
:1012D0008A81282F30E081E090E0022E02C0880F42
:1012E000991F0A94E2F7809584238C93BBC0ABE3EB
:1012F000B0E0EBE3F0E08081482F8A81282F30E0D6
:1013000081E090E0022E02C0880F991F0A94E2F754
:10131000842B8C93A7C08B81282F30E039872887B6
:1013200088859985009731F02885398521303105E8
:10133000B1F098C0A8E3B0E0E8E3F0E08081482F86
:101340008A81282F30E081E090E0022E02C0880FD1
:10135000991F0A94E2F7809584238C9383C0A8E3B5
:10136000B0E0E8E3F0E08081482F8A81282F30E068
:1013700081E090E0022E02C0880F991F0A94E2F7E4
:10138000842B8C936FC08B81282F30E03F832E837A
:101390008E819F81009731F02E813F812130310570
:1013A000B1F060C0A5E3B0E0E5E3F0E08081482F54
:1013B0008A81282F30E081E090E0022E02C0880F61
:1013C000991F0A94E2F7809584238C934BC0A5E380
:1013D000B0E0E5E3F0E08081482F8A81282F30E0FB
:1013E00081E090E0022E02C0880F991F0A94E2F774
:1013F000842B8C9337C08B81282F30E03D832C8346
:101400008C819D81009731F02C813D812130310507
:10141000B1F028C0A2E3B0E0E2E3F0E08081482F21
:101420008A81282F30E081E090E0022E02C0880FF0
:10143000991F0A94E2F7809584238C9313C0A2E34A
:10144000B0E0E2E3F0E08081482F8A81282F30E08D
:1014500081E090E0022E02C0880F991F0A94E2F703
:10146000842B8C932D960FB6F894DEBF0FBECDBFA4
:10147000CF91DF910895DF93CF9300D000D00F92EA
:10148000CDB7DEB78A836B8319828A81282F30E03B
:101490003D832C834C815D814130510541F18C812C
:1014A0009D818230910534F42C813D8121153105D7
:1014B00061F052C04C815D814230510551F18C8107
:1014C0009D8183309105B9F147C0EBE3F0E0808165
:1014D000282F30E08B81882F90E0A90102C055951C
:1014E00047958A95E2F7CA018170898335C0E8E3A0
:1014F000F0E08081282F30E08B81882F90E0A901D7
:1015000002C0559547958A95E2F7CA018170898393
:1015100023C0E5E3F0E08081282F30E08B81882F25
:1015200090E0A90102C0559547958A95E2F7CA0156
:101530008170898311C0E2E3F0E08081282F30E0E0
:101540008B81882F90E0A90102C0559547958A9517
:10155000E2F7CA018170898389810F900F900F9003
:101560000F900F90CF91DF910895DF93CF9300D02C
:1015700000D0CDB7DEB789836A838981282F30E018
:101580003C832B838B819C818130910521F12B81C0
:101590003C81223031052CF48B819C81009761F0D5
:1015A00046C02B813C812230310521F18B819C8109
:1015B0008330910571F13BC08A81813029F4EAE3DF
:1015C000F0E08FEF808333C08A81882381F5EAE3DE
:1015D000F0E010822CC08A81813029F4E7E3F0E04A
:1015E0008FEF808324C08A81882309F5E7E3F0E048
:1015F00010821DC08A81813029F4E4E3F0E08FEF8E
:10160000808315C08A81882391F4E4E3F0E010829E
:101610000EC08A81813029F4E1E3F0E08FEF80830E
:1016200006C08A81882319F4E1E3F0E010820F906C
:101630000F900F900F90CF91DF910895DF93CF938C
:1016400000D00F92CDB7DEB789838981282F30E093
:101650003B832A838A819B8181309105E9F02A812D
:101660003B81223031052CF48A819B81009761F007
:101670002AC02A813B8122303105B1F08A819B81C9
:1016800083309105C9F01FC0ABE3B0E0EBE3F0E0BD
:10169000808180958C9317C0A8E3B0E0E8E3F0E088
:1016A000808180958C930FC0A5E3B0E0E5E3F0E086
:1016B000808180958C9307C0A2E3B0E0E2E3F0E084
:1016C000808180958C930F900F900F90CF91DF9138
:1016D0000895DF93CF9300D000D0CDB7DEB78983D4
:1016E0006A838981282F30E03C832B838B819C8106
:1016F00081309105D1F02B813C81223031052CF4D1
:101700008B819C81009761F01EC02B813C8122302F
:10171000310581F08B819C818330910581F013C06C
:10172000EBE3F0E08A8180830EC0E8E3F0E08A8199
:10173000808309C0E5E3F0E08A81808304C0E2E3AE
:10174000F0E08A8180830F900F900F900F90CF91DF
:10175000DF910895DF93CF9300D000D00F92CDB7E3
:10176000DEB789838981282F30E03C832B838B81EE
:101770009C8181309105D1F02B813C812230310553
:101780002CF48B819C81009761F01FC02B813C81E0
:101790002230310581F08B819C818330910581F06D
:1017A00014C0E9E3F0E090819A8310C0E6E3F0E032
:1017B00020812A830BC0E3E3F0E030813A8306C046
:1017C000E0E3F0E080818A8301C002C09A819D83BA
:1017D0008D810F900F900F900F900F90CF91DF9110
:1017E0000895DF93CF9300D000D0CDB7DEB78983C3
:1017F0006A838981282F30E03C832B838B819C81F5
:1018000081309105D1F02B813C81223031052CF4BF
:101810008B819C81009761F01EC02B813C8122301E
:10182000310581F08B819C818330910581F013C05B
:10183000EAE3F0E08A8180830EC0E7E3F0E08A818A
:10184000808309C0E4E3F0E08A81808304C0E1E39F
:10185000F0E08A8180830F900F900F900F90CF91CE
:10186000DF910895DF93CF9300D000D0CDB7DEB7DE
:1018700089836A838981282F30E03C832B838B8185
:101880009C818130910549F12B813C8122303105C9
:101890002CF48B819C81009761F05AC02B813C8194
:1018A0002230310571F18B819C8183309105E9F102
:1018B0004FC0ABE3B0E0EBE3F0E08081482F8A81DA
:1018C000282F30E081E090E0022E02C0880F991F9F
:1018D0000A94E2F784278C933BC0A8E3B0E0E8E3E6
:1018E000F0E08081482F8A81282F30E081E090E06D
:1018F000022E02C0880F991F0A94E2F784278C9366
:1019000027C0A5E3B0E0E5E3F0E08081482F8A81BD
:10191000282F30E081E090E0022E02C0880F991F4E
:101920000A94E2F784278C9313C0A2E3B0E0E2E3C9
:10193000F0E08081482F8A81282F30E081E090E01C
:10194000022E02C0880F991F0A94E2F784278C9315
:101950000F900F900F900F90CF91DF910895DF932C
:10196000CF93CDB7DEB7A6E2B0E0E6E2F0E080814B
:1019700080688C93A6E2B0E0E6E2F0E080818860C7
:101980008C93A7E2B0E0E7E2F0E0808180628C9384
:10199000A7E2B0E0E7E2F0E080818F738C93A7E2EA
:1019A000B0E0E7E2F0E080818C93A6E2B0E0E6E20E
:1019B000F0E08081887F8C93A6E2B0E0E6E2F0E080
:1019C000808182608C93CF91DF910895DF93CF93D4
:1019D00000D00F92CDB7DEB789838981282F30E000
:1019E0003B832A838A819B81009731F02A813B8146
:1019F0002130310549F00FC0A6E2B0E0E6E2F0E0A8
:101A00008081877F8C9307C0A6E2B0E0E6E2F0E039
:101A10008081877F8C930F900F900F90CF91DF91F3
:101A20000895DF93CF9300D0CDB7DEB78A83A7E2C6
:101A3000B0E0E7E2F0E08081807E8C93A7E2B0E046
:101A4000E7E2F0E090818A81892B8C93A6E2B0E0F6
:101A5000E6E2F0E0808180648C93E6E2F0E0808151
:101A600082958F70882F90E0817090700097A9F315
:101A7000A6E2B0E0E6E2F0E0808180618C93E5E2EE
:101A8000F0E08081898389810F900F90CF91DF9161
:101A90000895DF93CF9300D00F92CDB7DEB789833F
:101AA0007B836A83A7E2B0E0E7E2F0E08081807E9A
:101AB0008C93A7E2B0E0E7E2F0E090818981892B86
:101AC0008C938A819B819093870080938600A6E205
:101AD000B0E0E6E2F0E0808180648C930F900F909C
:101AE0000F90CF91DF9108951F920F920FB60F9232
:101AF00011242F933F934F935F936F937F938F9313
:101B00009F93AF93BF93EF93FF93DF93CF93CDB7A3
:101B1000DEB780E00E94E60CE5E2F0E08081882FED
:101B200090E0909389008093880080918600909146
:101B30008700009729F0E0918600F09187000995D1
:101B400081E00E94E60CCF91DF91FF91EF91BF9170
:101B5000AF919F918F917F916F915F914F913F9145
:101B60002F910F900FBE0F901F901895DF93CF937A
:101B700000D0CDB7DEB79A838983E981FA8180816D
:101B8000E981FA819181692F41E00E9432080F902A
:101B90000F90CF91DF910895DF93CF9300D0CDB711
:101BA000DEB79A838983E981FA818081E981FA81AC
:101BB0009181692F41E00E9424090F900F90CF91ED
:101BC000DF910895DF93CF9300D0CDB7DEB79A832E
:101BD0008983E981FA818081E981FA819181692F84
:101BE00040E00E9424090F900F90CF91DF9108955B
:101BF000DF93CF9300D0CDB7DEB79A838983E98195
:101C0000FA818081E981FA819181692F0E94320CE9
:101C10000F900F90CF91DF910895DF93CF93CDB7C1
:101C2000DEB72E970FB6F894DEBF0FBECDBF80E0B3
:101C300061E00E94F10B81E061E041E00E94320826
:101C400081E060E041E00E94320881E063E041E031
:101C50000E94320880E090E0A8E4B2E48B879C8781
:101C6000AD87BE876B857C858D859E8520E030E0C5
:101C70004AEF54E40E941F02DC01CB018F83988756
:101C8000A987BA876F81788589859A8520E030E0B9
:101C900040E85FE30E94790388232CF481E090E020
:101CA0009E838D833FC06F81788589859A8520E0EA
:101CB0003FEF4FE757E40E94190318164CF56B8568
:101CC0007C858D859E8520E030E040E251E40E94D5
:101CD0001F02DC01CB01BC01CD010E944900DC01E7
:101CE000CB019E838D830FC088EC90E09C838B8317
:101CF0008B819C810197F1F79C838B838D819E81E1
:101D000001979E838D838D819E81009769F714C012
:101D10006F81788589859A850E944900DC01CB0115
:101D20009E838D838D819E819A83898389819A8107
:101D30000197F1F79A83898388E30E94AE0E8CE0C5
:101D40000E94AE0E81E00E94AE0E2E960FB6F89461
:101D5000DEBF0FBECDBFCF91DF910895DF93CF934C
:101D6000CDB7DEB72F970FB6F894DEBF0FBECDBF4D
:101D70008F8781E061E040E00E94240981E060E01B
:101D800040E00E94240980E06F850E94690B81E099
:101D900063E040E00E94240981E063E041E00E94AA
:101DA000240980E090E0A0E0B0E48B879C87AD87B9
:101DB000BE876B857C858D859E8520E030E04AEF6F
:101DC00054E40E941F02DC01CB018F839887A9870E
:101DD000BA876F81788589859A8520E030E040E870
:101DE0005FE30E94790388232CF481E090E09E83D6
:101DF0008D833FC06F81788589859A8520E03FEF8C
:101E00004FE757E40E94190318164CF56B857C8543
:101E10008D859E8520E030E040E251E40E941F0263
:101E2000DC01CB01BC01CD010E944900DC01CB01EA
:101E30009E838D830FC088EC90E09C838B838B8185
:101E40009C810197F1F79C838B838D819E81019703
:101E50009E838D838D819E81009769F714C06F8169
:101E6000788589859A850E944900DC01CB019E8393
:101E70008D838D819E819A83898389819A8101973F
:101E8000F1F79A83898381E063E040E00E942409AE
:101E90002F960FB6F894DEBF0FBECDBFCF91DF9166
:101EA0000895DF93CF93CDB7DEB72F970FB6F89491
:101EB000DEBF0FBECDBF8F8781E061E041E00E94B1
:101EC000240981E060E040E00E94240980E06F8501
:101ED0000E94690B81E063E040E00E94240981E0F8
:101EE00063E041E00E94240980E090E0A0E0B0E4DB
:101EF0008B879C87AD87BE876B857C858D859E850E
:101F000020E030E04AEF54E40E941F02DC01CB01E4
:101F10008F839887A987BA876F81788589859A8505
:101F200020E030E040E85FE30E94790388232CF44E
:101F300081E090E09E838D833FC06F8178858985A5
:101F40009A8520E03FEF4FE757E40E9419031816E7
:101F50004CF56B857C858D859E8520E030E040E2E8
:101F600051E40E941F02DC01CB01BC01CD010E94A3
:101F70004900DC01CB019E838D830FC088EC90E08B
:101F80009C838B838B819C810197F1F79C838B834E
:101F90008D819E8101979E838D838D819E81009787
:101FA00069F714C06F81788589859A850E944900F8
:101FB000DC01CB019E838D838D819E819A838983F1
:101FC00089819A810197F1F79A83898381E063E09F
:101FD00040E00E9424092F960FB6F894DEBF0FBE92
:101FE000CDBFCF91DF910895DF93CF93CDB7DEB70B
:101FF00081E00E94AE0ECF91DF910895DF93CF93E1
:1020000000D00F92CDB7DEB78A836B8319828A81A5
:10201000882319F48B81898306C08A81813019F461
:102020008B81805C898389818068898389810E9412
:10203000AE0E0F900F900F90CF91DF910895DF9328
:10204000CF9300D00F92CDB7DEB79B838A831982DE
:102050000EC08981282F30E08A819B81FC01E20F2C
:10206000F31F80810E94510F89818F5F898389814D
:10207000282F30E08A819B81FC01E20FF31F8081D1
:10208000882339F70F900F900F90CF91DF9108952B
:10209000DF93CF93CDB7DEB72D970FB6F894DEBFA1
:1020A0000FBECDBF9D878C8719821DC08981E82F07
:1020B000F0E08C859D852AE030E0B9010E94B611E0
:1020C000282FCE010296E80FF91F20838C859D856D
:1020D0002AE030E0B9010E94B611CB019D878C87C0
:1020E00089818F5F89838C859D850097F9F6898129
:1020F000815089830FC08981282F30E0CE0102965C
:10210000FC01E20FF31F8081805D0E94510F8981E5
:102110008150898389818F3F71F72D960FB6F8948E
:10212000DEBF0FBECDBFCF91DF910895DF93CF9378
:10213000CDB7DEB727970FB6F894DEBF0FBECDBF81
:102140009C838B836D834E832F8319828D81882F8F
:1021500090E0880F991F880F991F880F991F898316
:1021600089818064898389810E94AE0E1A820EC0A3
:102170008A81282F30E08B819C81FC01E20FF31FC4
:1021800080810E94510F8A818F5F8A838A81883083
:1021900078F38E816F810E94FE0F8D810E94510F16
:1021A00027960FB6F894DEBF0FBECDBFCF91DF915B
:1021B0000895DF93CF93CDB7DEB783E060E040E0D2
:1021C0000E94320883E061E040E00E94320883E030
:1021D00062E040E00E94320883E063E040E00E9459
:1021E000320883E060E041E00E94240983E061E07E
:1021F00041E00E94240983E062E041E00E9424095A
:1022000083E063E041E00E94240983E064E041E070
:102210000E94320883E065E041E00E94320883E0DA
:1022200066E041E00E94320883E067E041E00E94FE
:10223000320883E064E041E00E94240983E065E025
:1022400041E00E94240983E066E041E00E94240905
:1022500083E067E041E00E942409CF91DF91089577
:10226000DF93CF9300D000D00F92CDB7DEB78FEFC2
:102270008C831B8257C08B81882F90E0FC01E4592E
:10228000FF4F908183E0692F40E00E9424091A8269
:1022900037C08A81882F90E0FC01E859FF4F908178
:1022A00083E0692F0E943B0A89838981882329F56D
:1022B0008A81482F50E08B81282F30E0CA01880F97
:1022C000991F880F991F820F931FFC01E059FF4F40
:1022D00080818C830CC08A81882F90E0FC01E859B2
:1022E000FF4F908183E0692F0E943B0A8983898197
:1022F000882389F38C818D831BC08A818F5F8A83B9
:102300008A81843030F28B81882F90E0FC01E4597F
:10231000FF4F908183E0692F41E00E9424098B8167
:102320008F5F8B838B81843008F4A5CF8C818D8364
:102330008D810F900F900F900F900F90CF91DF91A4
:102340000895DF93CF930F92CDB7DEB70E94AF0C05
:1023500083E061E00E94B50A80E090E00E94110DE8
:10236000898383E069810E94690BF6CFAA1BBB1B9E
:1023700051E107C0AA1FBB1FA617B70710F0A61B85
:10238000B70B881F991F5A95A9F780959095BC01A6
:10239000CD0108952F923F924F925F926F927F925C
:1023A0008F929F92AF92BF92CF92DF92EF92FF9265
:1023B0000F931F93CF93DF93CDB7DEB7CA1BDB0B11
:1023C0000FB6F894DEBF0FBECDBF09942A883988B6
:1023D00048885F846E847D848C849B84AA84B984BD
:1023E000C884DF80EE80FD800C811B81AA81B981C9
:1023F000CE0FD11D0FB6F894DEBF0FBECDBFED01DD
:062400000895F894FFCFDF
:1024060000000000000000000001020304050607AA
:102416003132334134353642373839432A30234452
:00000001FF
